:020000040800F2
:1000000000000220F5020008FB020008FF020008C1
:10001000170300081B03000833030008000000005A
:100020000000000000000000000000004B0300087A
:100030004F0300080000000053030008DD1800080B
:1000400065030008650300086503000865030008F0
:1000500065030008650300086503000865030008E0
:1000600065030008650300086503000865030008D0
:1000700065030008650300086503000865030008C0
:1000800065030008650300086503000865030008B0
:1000900065030008650300086503000865030008A0
:1000A0006503000865030008650300086503000890
:1000B0006503000865030008650300086503000880
:1000C0006503000865030008650300086503000870
:1000D0006503000865030008650300089117000820
:1000E000851700086503000865030008650300081C
:1000F0006503000865030008650300086503000840
:10010000650300086503000865030008650300082F
:10011000650300086503000865030008650300081F
:10012000650300086503000865030008650300080F
:1001300065030008000000000000000065030008DF
:1001400065030008650300086503000865030008EF
:1001500065030008650300086503000865030008DF
:1001600065030008650300086503000865030008CF
:10017000650300086503000865030008000000002F
:1001800000000000650300080000000000000000FF
:10019000650300080000000000000000650300087F
:1001A00000000000000000000000000065030008DF
:1001B000650300086503000865030008650300087F
:1001C0006503000800B583B001F040F9384B394AA7
:1001D0001360394A1360394900E02146384B99428F
:1001E0000BD20A684B6801F10C0488689842F4D974
:1001F0001168196004330432F8E72E4B1A68314B4A
:100200009A4200D0FEE72C4B1A682F4B9A42F9D144
:10021000274B2E4A13602E4A13602E4B05E0002018
:10022000106004329342FAD80B462B4A934204D210
:10023000194651F8082B5B68F4E7244B1B6813B987
:10024000234B1B6803B1FEE701F00EFC694601A8D1
:1002500001F0F0F8214C224BE41AA4100025AC4226
:1002600014DC204C204BE41AA4100025AC4213DC13
:100270000099019801F000FC05461C4C1C4BE41A47
:10028000A410002C0EDC284601F0CEF8144B53F8D5
:10029000253098470135E2E7134B53F8253098474E
:1002A0000135E3E7013C124B53F824309847E8E767
:1002B000BABADECA0000002024000020680300084B
:1002C00080030008785634123254769828000020B3
:1002D00078010020800300089003000890030008C4
:1002E00090030008900300089003000890030008A2
:1002F0009003000808B5FFF765FF00BEFEE71EF09B
:10030000040F0CBFEFF30880EFF309807146124A27
:10031000104700BEFEE700BEFEE71EF0040F0CBF54
:10032000EFF30880EFF3098071460C4A104700BED6
:10033000FEE71EF0040F0CBFEFF30880EFF3098017
:100340007146074A104700BEFEE700BEFEE700BE4A
:10035000FEE700BEFEE77047130300082F03000806
:080360004703000800BEFEE7A0
:10036800A82300080000002028000020A823000877
:100378000000001000000010280000207C01002070
:0803880000000010000000104D
:1003900010B50446074B1868074BA3FB00308009D3
:1003A00000F0AEF8002221464FF0FF3000F04CF88C
:1003B000002010BD0C000020D34D621008B50B4B7F
:1003C0001A6842F400721A601A6842F480621A6075
:1003D0001A6842F480721A60032000F017F80F20A8
:1003E000FFF7D6FF01F05CFB002008BD003C024097
:1003F000024A136801331360704700BF40000020B9
:10040000014B1868704700BF4000002010B504463B
:10041000C31E042B0FD80A4AD36823F4E0631B04DD
:100420001B0C240204F4E064234343F0BF6343F451
:100430000033D36010BDA421024801F003F8EAE7BD
:1004400000ED00E07822000870B505460C4616461F
:100450000F2A25D80F2C28D81B4BDB68C3F30223A7
:10046000C3F10702042A28BF0422191D062921D935
:10047000033B4FF0FF3101FA02F224EA02049C40F0
:1004800001FA03F326EA03063443002D14DB2401AA
:10049000E4B205F1604505F5614585F8004370BD9E
:1004A000BC210A4800F0CEFFD4E7BD21074800F088
:1004B000C9FFD1E70023DCE705F00F052401E4B212
:1004C000034B5C55EBE700BF00ED00E0782200082D
:1004D00014ED00E010B5041E08DB04F01F026409EF
:1004E00001239340044A42F8243010BDD021034830
:1004F00000F0A8FFF1E700BF00E100E0782200086B
:100500000138B0F1807F0AD2064B5860064AF021CC
:1005100082F823100020986007221A60704701209B
:10052000704700BF10E000E000ED00E010B50446A9
:10053000042800D038B9042C0BD0094A136823F0E2
:100540000403136010BD40F2B311064800F07AFFB7
:10055000F1E7034A136843F004031360F2E700BFB6
:1005600010E000E07822000890F83530DBB2022B72
:1005700003D08023436501207047052380F8353080
:100580000268136823F00103136000207047000025
:100590002DE9F04782B080460E46B04B98421FD0FE
:1005A00003F5806398421BD003F58063984217D00F
:1005B00003F58063984213D003F5806398420FD00F
:1005C00003F5806398420BD003F58063984207D00F
:1005D00003F58063984203D0C521A14800F032FFA3
:1005E000338833B37368012B1ED9112B1CD0022B17
:1005F0001AD0122B18D09B4A934215D002F58012C4
:10060000934211D002F5801293420DD0A2F5F81258
:10061000934209D002F58012934205D002F5801270
:10062000934201D0032B09D1B368022B0BD80024CD
:100630004AE0C6218A4800F005FFD3E7C721884871
:1006400000F000FFF0E7C821854800F0FBFEEEE770
:10065000EC21834800F0F6FE96E0062300E000233C
:100660008B4003430232804941F822307F4B1A68A5
:10067000FB4303EA0201706810F4803F01D047EAAF
:1006800002017A4A1160526803EA0201706810F4AC
:10069000003F01D047EA0201744A5160926803EAC0
:1006A0000201706810F4801F01D047EA02016F4A0E
:1006B0009160D2681340716811F4001F01D047EABD
:1006C00002036A4AD36001340F2C00F2C380012573
:1006D000A54037682F40BD42F5D17368022B01D089
:1006E000122B31D13369FBB1092B1DD0012B1BD04B
:1006F000022B19D0032B17D0042B15D0052B13D0A8
:10070000062B11D0072B0FD0082B0DD00A2B0BD0A6
:100710000B2B09D00C2B07D00D2B05D00F2B03D0A2
:10072000D9214F4800F08EFEE208083258F8220026
:1007300004F0070399000F238B4020EA030033697C
:100740008B40034348F82230D8F800204FEA440A8F
:100750004FF0030909FA0AF96FEA090909EA0202E6
:10076000736803F0030303FA0AF31343C8F8003075
:1007700073685A1E012A03D9112B01D0122B18D1EC
:10078000F368032B3FF664AFD8F8082009EA0202A9
:10079000F36803FA0AF31343C8F80830D8F80420C2
:1007A00022EA05027368C3F30015A5401543C8F893
:1007B0000450D8F80C3009EA0309B36803FA0AF3C5
:1007C00043EA0903C8F80C30736813F0805F3FF404
:1007D0007AAF00230193264B5A6C42F480425A644C
:1007E0005B6C03F480430193019BA208911C1E4B98
:1007F00053F8210004F0030399000F238B4020EAF3
:100800000300164B98453FF42AAF03F580639845E3
:1008100016D003F58063984514D003F5806398459E
:1008200012D003F58063984510D003F58063984596
:100830000ED003F5806398453FF40FAF08230FE710
:1008400001230DE702230BE7032309E7042307E74E
:10085000052305E702B0BDE8F08700BF00000240B5
:10086000AC2200080000111000380140003C01409B
:100870000038024070B5064615460C4629B1012DD8
:1008800009D875B92404B46170BD40F2B1110648AD
:1008900000F0D8FDF3E74FF4D971034800F0D2FD22
:1008A000EFE7B461F0E700BFAC22000808B5054BE4
:1008B0005B69034200D108BD024B586100F004FFA0
:1008C000F9E700BF003C0140002800F0EB8010B5C4
:1008D00004460368744A93420CD002F58062934246
:1008E00008D002F58062934204D040F265116F484F
:1008F00000F0A8FD6368013B6D4A934267D8A36886
:1009000013B1B3F5804F68D1E36823F47F7323F00C
:100910000303002B67D12369B3F5804F02D0B3F5F1
:10092000404F66D16369012B69D8A36933F0FE0398
:100930006BD1E3690BB1402B6DD1236A0BB1802BD6
:100940006FD194F83D30002B71D0242384F83D30D2
:100950002268136823F00103136000F04BFC554B31
:10096000A3FB00239B0C226853606168524A9142AA
:1009700063D801332268136263684F4A934266D892
:100980005B00B0FBF3F0C0F30B03032B00D8042093
:100990002368D861E369216A22680B4313602369E5
:1009A000E16822680B4393606369A16922680B4385
:1009B000D3602268136843F00103136000202064B1
:1009C000202384F83D30206384F83E0010BD4FF4AE
:1009D000B371364800F036FD91E740F267113348B5
:1009E00000F030FD90E74FF4B471304800F02AFD7C
:1009F00091E740F269112D4800F024FD92E74FF491
:100A0000B5712A4800F01EFD8FE740F26B112748B0
:100A100000F018FD8DE74FF4B671244800F012FD88
:100A20008BE740F26D11214800F00CFD89E784F856
:100A30003C30204600F0DEFD87E74FF4967202FB63
:100A400003F31E4AA2FB03239B09013392E7A1682B
:100A500089B903EB4302B0FBF2F2C2F30B02B2FA24
:100A600082F25209E2B991B903EB4303B0FBF3F010
:100A700040F400408CE703EB830202EB8202B0FB00
:100A8000F2F2C2F30B02B2FA82F25209EAE703EB86
:100A9000830303EB8303B0FBF3F040F4404077E7BC
:100AA000012075E70120704700540040DC22000857
:100AB0007F1A060083DE1B43A0860100D34D62101F
:100AC00030B583B0044603680F2B29D8236813F090
:100AD000010F3DD06368012B01D9052B25D1A34B14
:100AE0009B6803F00C03042B29D0A04B9B6803F0F8
:100AF0000C03082B1ED022799D4B1A706368002BC3
:100B000050D0FFF77DFC0546984B1B6813F4003F5F
:100B10001ED1FFF775FC401B6428F5D90320E3E1E3
:100B2000F521944800F08EFCD0E7FA21914800F0BE
:100B300089FCD4E78D4B5B6813F4800FDBD08B4BC3
:100B40001B6813F4003F03D06368002B00F0C981D9
:100B5000236813F0020F5DD0E368012B31D82369BD
:100B60001F2B34D8814B9B6813F00C0F3AD07F4B6E
:100B70009B6803F00C03082B2FD0E368002B74D084
:100B80007D4B01221A60FFF73BFC0546774B1B6843
:100B900013F0020F5AD1FFF733FC401B0228F5D99E
:100BA0000320A1E1FFF72CFC0546704B1B6813F4F2
:100BB000003FCDD0FFF724FC401B6428F5D903206B
:100BC00092E14FF496716B4800F03CFCC7E740F2AD
:100BD0002D11684800F036FCC4E7644B5B6813F4E1
:100BE000800FCAD1614B1B6813F0020F04D0E36879
:100BF000012B01D0012077E15C48036823F0F80362
:100C00002169F82292FAA2F2B2FA82F201FA02F211
:100C100013430360236813F0080F50D06369012B5E
:100C200035D86369002B38D0544B01221A60FFF786
:100C3000E7FB05464D4B5B6F13F0020F3FD1FFF70B
:100C4000DFFB401B0228F5D903204DE1474803682C
:100C500023F0F8032169F82292FAA2F2B2FA82F2A2
:100C600001FA02F213430360D4E7434B00221A60F7
:100C7000FFF7C6FB05463D4B1B6813F0020FC9D0BA
:100C8000FFF7BEFB401B0228F5D903202CE140F200
:100C90006D11384800F0D6FBC3E7384B00221A60CC
:100CA000FFF7AEFB0546314B5B6F13F0020F06D02A
:100CB000FFF7A6FB401B0228F5D9032014E12368A7
:100CC00013F0040F60D0A368012B01D9052B1FD1AD
:100CD00000230193254B1A6C42F080521A641B6C5E
:100CE00003F080530193019B254A136843F48073FA
:100CF0001360FFF785FB0546214B1B6813F4807FCB
:100D00000CD1FFF77DFB401B0228F5D90320EBE057
:100D100040F29711174800F095FBD9E7227A194B5A
:100D20001A70A36883B1FFF76BFB05460F4B1B6F6F
:100D300013F0020F28D1FFF763FB401B41F2883309
:100D40009842F3D90320CFE0FFF75AFB0546074B43
:100D50001B6F13F0020F17D0FFF752FB401B41F23D
:100D600088339842F3D90320BEE000BF0038024028
:100D7000023802401C23000800004742800E474210
:100D80000070004070380240A369022B39D8A36973
:100D9000002B00F0A880564A926802F00C02082A44
:100DA00000F0A480022B40F08880E36913B1B3F512
:100DB000800F2CD1236A3F2B2FD8636A323BB3F5C7
:100DC000BF7F30D8A36A022B05D0042B03D0062B9B
:100DD00001D0082B2DD1E36A043B0B2B2FD8454BB8
:100DE00000221A60FFF70CFB0546414B1B6813F00D
:100DF000007F2AD0FFF704FB401B0228F5D903200F
:100E000072E04FF4E6713C4800F01CFBBFE740F293
:100E1000D511394800F016FBCCE74FF4EB7136489A
:100E200000F010FBC9E740F2D711334800F00AFB8D
:100E3000C8E74FF4EC71304800F004FBCBE740F218
:100E4000D9112D4800F0FEFAC9E7E369226A13437D
:100E5000616A47F6C07292FAA2F2B2FA82F201FA1D
:100E600002F21343A26A5208013A4FF4403191FA58
:100E7000A1F1B1FA81F18A401343E16A4FF0706247
:100E800092FAA2F2B2FA82F201FA02F21343184A7B
:100E90005360184B01221A60FFF7B2FA0446144B54
:100EA0001B6813F0007F06D1FFF7AAFA001B022887
:100EB000F5D9032018E0002016E00E4B00221A603E
:100EC000FFF79EFA04460A4B1B6813F0007F06D01A
:100ED000FFF796FA001B0228F5D9032004E0002052
:100EE00002E0012000E0002003B030BD0120FBE75C
:100EF00000380240600047421C230008214B9B68D9
:100F000003F00C03042B3AD0082B01D01E48704785
:100F10001C4B586800F03F005B6813F4800F1ED034
:100F20001A4AB2FBF0F2174B586847F6C0731840E4
:100F300093FAA3F3B3FA83F3D84000FB02F0114B0A
:100F40005B6803F440334FF4403292FAA2F2B2FAF3
:100F500082F2D34001335B00B0FBF3F070470A4AE2
:100F6000B2FBF0F2074B586847F6C073184093FA8B
:100F7000A3F3B3FA83F3D84000FB02F0DFE70348A2
:100F8000704700BF003802400024F40000127A00CD
:100F900070B504460D460368013B0E2B11D80F2D8A
:100FA00015D88C4B1B6803F00F03AB4215D2EBB284
:100FB000884A1370136803F00F03AB420DD0012071
:100FC00070BD40F23721844800F03CFAE7E74FF467
:100FD0000E71814800F036FAE3E7236813F0020F40
:100FE00018D0A3687BB1802B0DD0902B0BD0A02BF9
:100FF00009D0B02B07D0C02B05D0D02B03D0E02BCD
:1010000001D0F02B37D1754A936823F0F003A16823
:101010000B439360236813F0010F73D06368032BB5
:101020002FD86368012B32D09A1E012A36D96B4A19
:10103000126812F0020F00F0CA8068498A6822F034
:10104000030213438B60FFF7DBF906466368012B4D
:101050002BD0022B38D0032B45D0604B9B6813F06C
:101060000C0F4FD0FFF7CCF9801B41F28833984228
:10107000F3D90320A4E740F24F21574800F0E2F9EA
:10108000C1E740F25621544800F0DCF9C9E7534A61
:10109000126812F4003FD0D1012091E74F4A126844
:1010A00012F0007FC9D101208AE74C4B9B6803F006
:1010B0000C03042B26D0FFF7A3F9801B41F28833E1
:1010C0009842F2D903207BE7444B9B6803F00C0362
:1010D000082B17D0FFF794F9801B41F28833984210
:1010E000F2D903206CE73D4B9B6803F00C030C2BFB
:1010F00008D0FFF785F9801B41F288339842F2D976
:1011000003205DE7334B1B6803F00F03AB4209D9A3
:10111000EAB2304B1A701B6803F00F03AB4201D0E8
:1011200001204DE7236813F0040F14D0E3685BB18E
:10113000B3F5805F08D0B3F5A05F05D0B3F5C05F0D
:1011400002D0B3F5E05F36D1244A936823F4E0532C
:10115000E1680B439360236813F0080F15D02369EF
:101160005BB1B3F5805F08D0B3F5A05F05D0B3F5F0
:10117000C05F02D0B3F5E05F23D1184A936823F42F
:101180006043216943EAC1039360FFF7B7FE134B45
:101190009B6803F0F003F02292FAA2F2B2FA82F214
:1011A000D3400F4AD35CD8400E4B18600F20FFF796
:1011B000EFF8002004E74FF42D71074800F042F9E2
:1011C000C2E740F2BB21044800F03CF9D5E701201A
:1011D000F6E600BF003C02401C2300080038024035
:1011E0000C2300080C000020014B1868704700BF5A
:1011F0000C00002008B5FFF7F7FF074B9B6803F4CE
:10120000E0534FF4E05292FAA2F2B2FA82F2D340E3
:10121000024AD35CD84008BD003802400C230008C5
:1012200008B5FFF7E1FF074B9B6803F460434FF4F9
:10123000604292FAA2F2B2FA82F2D340024AD35C3E
:10124000D84008BD003802400C230008002800F0F8
:10125000E58010B504460368714A934210D0A2F5A8
:10126000784293420CD002F58062934208D002F596
:101270007842934204D040F20B116A4800F0E2F841
:10128000636813B1B3F5827F76D1A3682BB1B3F550
:10129000806F02D0B3F5004F74D1E368B3F5006FEF
:1012A00001D0002B74D1A369B3F5007F03D013B133
:1012B000B3F5802F72D1E3696BB1082B0BD0102BE3
:1012C00009D0182B07D0202B05D0282B03D0302B8A
:1012D00001D0382B68D1236A0BB1802B6AD1636AA5
:1012E0000BB1102B6CD1636A33B923690BB1022B9C
:1012F0006CD16369012B6FD8A36A13B1B3F5005F9A
:1013000070D1A36AB3F5005F72D094F85130002B0E
:101310007AD0022384F851302268136823F0400306
:1013200013606368A2681343E2681343226913439E
:1013300062691343A26902F400721343E269134322
:10134000226A1343A16A22680B431360638B03F084
:101350000403616A22680B435360A36AB3F5005F1C
:1013600058D02268D36923F40063D36100206065FC
:10137000012384F8513010BD4FF48671294800F0E4
:1013800061F882E740F20D11264800F05BF884E72F
:101390004FF48771234800F055F884E740F20F11AD
:1013A000204800F04FF886E74FF488711D4800F0A0
:1013B00049F890E740F211111A4800F043F88EE71F
:1013C0004FF48971174800F03DF88CE740F2151191
:1013D000144800F037F88CE74FF48B71114800F097
:1013E00031F889E740F219110E4800F02BF888E730
:1013F000E36A013B4FF6FE72934286D94FF48E7139
:10140000084800F01FF880E784F85030204600F0CC
:10141000EFF97EE72368E26A1A61A2E701207047CC
:10142000003001404C230008FEE708B50120FFF71B
:10143000FBFF000001230360014B0B60704700BFFE
:101440000400002008B5FFF7F0FF000008B500F029
:1014500009F8024A024B9A6008BD00BF000000086C
:1014600000ED00E00C4B1A6842F001021A60002106
:1014700099601A6822F0847222F480321A60074A56
:101480005A601A6822F480221A60D960044B4FF027
:1014900000629A60704700BF00380240103000249C
:1014A00000ED00E0224B9B6803F00C03042B14D0EA
:1014B000082B16D01BB11F4B1F4A1A6002E01D4BB0
:1014C0001D4A1A601A4B9B68C3F303131B4AD15C75
:1014D000184A1368CB4013607047164B184A1A60BD
:1014E000F0E7134B5A685B6803F03F0312F4800F78
:1014F00013D0134AB2FBF3F20D4B5B68C3F38813AE
:1015000003FB02F30A4A5268C2F30142013252005D
:10151000B3FBF2F3074A1360D4E7074AB2FBF3F2D6
:10152000034B5B68C3F3881303FB02F3EAE700BFD6
:10153000003802400C0000200024F4007C23000846
:1015400000127A0030B591B0194A136B43F00203D0
:1015500013632C22002105A800F086FE01240194CB
:101560000294022303930494802206920794089322
:1015700009944FF480420B920C940D930E940D4DF0
:1015800001A92846FFF704F806A92846FFF700F846
:101590000BA92846FEF7FCFF074B196804FA01F176
:1015A000002289B22846FFF765F911B030BD00BFAF
:1015B00000380240000402403C00002008B50A4800
:1015C0000A4B03604FF480420261094B43600023E1
:1015D00043618260C36103623023C360FE23836181
:1015E000FFF772F908BD00BF44000020005400401E
:1015F000801A0600F0B589B0002500951B4C236BBE
:1016000043F002032363236B03F002030093009B68
:101610000195236B43F002032363236B03F0020362
:101620000193019B4FF480730393122304930123CE
:10163000059302230693042707970D4E03A930460E
:10164000FEF7A6FF4FF400730393079703A93046F4
:10165000FEF79EFF0295236C43F400132364236C72
:1016600003F400130293029B09B0F0BD003802405E
:101670000004024010B586B0002400940F4B1A6B92
:1016800042F004021A631B6B03F004030093009BF7
:101690000B4B0293039406A94FF4005341F8143DF9
:1016A0000848FEF775FF224602212820FEF7CCFEEF
:1016B0002820FEF70FFF06B010BD00BF0038024023
:1016C000000011100008024038B50546FEF798FEEC
:1016D0000446244B1B68C31A962B02D9B5F5005F4C
:1016E00002D0204B1C6038BD11221F491F4800F05A
:1016F0007FFC1F4B1B68002BFBD01D4B00221A6088
:1017000001221C49194800F097FC1B4B1B68002B59
:10171000FBD00022184B1A60184B1B68012199401E
:1017200089B21748FFF7A6F8124B93F90030312B16
:1017300007D0322B12D0332B06D1104B0E221A6059
:1017400002E00E4B00221A6001220C4B196802FACB
:1017500001F189B20A48FFF78DF8C2E7074B07226B
:101760001A60F1E738000020100000203801002046
:101770003400002098000020300000203C000020B1
:101780000004024008B54FF40050FFF78FF808BD81
:1017900008B5024800F0D0FC08BD00BF38010020A9
:1017A000014B01221A60704730000020014B0122DA
:1017B0001A6070473400002008B50B480B4B0360DB
:1017C0001823C361002383604361022202618362A4
:1017D0000722C262C36003624FF4007282614362F7
:1017E0004360FFF733FD08BD9C000020003001403E
:1017F00030B58BB000220192224B196B41F00101F0
:101800001963196B01F00101019101990292196BA1
:1018100041F001011963196B01F001010291029974
:101820000392196B41F001011963196B01F0010179
:101830000391039904925A6C42F480525A645B6C8F
:1018400003F480530493049B2023059302230693FF
:10185000012207920893052509950B4C05A92046FE
:10186000FEF796FE40230593099505A92046FEF74D
:101870008FFE80230593099505A92046FEF788FE73
:101880000BB030BD00380240000002400A4B1B681C
:101890000A4AA2FB03239B09013BB3F1807F09D2D3
:1018A000074A5360074BF02183F82310002393600D
:1018B00007231360704700BF0C000020D34D621057
:1018C00010E000E000ED00E0034B1B681BB1024A92
:1018D0001368013B13607047F400002008B5FEF761
:1018E00087FDFFF7F1FF08BD08B50848084B036006
:1018F0004FF4E133436000238360C360036183617D
:101900000C224261C36100F0DFFA08BD38010020FB
:101910000048004070B588B0002401941A4B1A6B3F
:1019200042F008021A631A6B02F008020192019A4F
:1019300002941A6C42F480221A641B6C03F4802314
:101940000293029B4FF48073039302230493059444
:1019500003230693072607960C4D03A92846FEF796
:1019600017FE4FF400730393079603A92846FEF76A
:101970000FFE012221462720FEF766FD2720FEF7F5
:10198000A9FD08B070BD00BF00380240000C024045
:1019900000B587B0002300930A4A116B41F004019F
:1019A0001163126B02F004020092009A4FF400528D
:1019B00001920293039301A90348FEF7E9FD07B0E2
:1019C0005DF804FB003802400008024030B595B0D5
:1019D00000240094214B1A6C42F080521A641B6C54
:1019E00003F080530093009B01941D4B1A6842F44E
:1019F00040421A601B6803F440430193019B01239A
:101A0000079308934FF480030E9308230F934FF42A
:101A1000A873109302251195072312930D9507A81B
:101A2000FFF74EF80F230293039504944FF4A0534D
:101A300005934FF480530693052102A8FFF7A8FAF7
:101A4000FFF7D2FB074BA3FB00308009FEF758FDE0
:101A50000420FEF76BFD15B030BD00BF003802401A
:101A600000700040D34D621008B5FEF7A7FCFFF7E9
:101A7000ADFFFFF717FD08BD08B5FEF79FFCFFF7A8
:101A8000A5FFFFF703FFFFF783FFFFF75BFDFFF7FE
:101A90002BFFFFF791FEFFF791FDFFF7EBFDFEE750
:101AA00070470268D36823F49073D3600268536967
:101AB00023F001035361202380F83A30704790F8F7
:101AC0003930DBB2212B2AD18368B3F5805F16D081
:101AD000036A5A1C02621A7803685A60C38C013B7D
:101AE0009BB2C384EBB90268D36823F08003D36050
:101AF0000268D36843F04003D36000207047036A54
:101B00001B880268C3F30803536003691BB9036AA7
:101B100002330362E2E7036A01330362DEE7022075
:101B200070470020704700002DE9F84304464268E2
:101B3000B44B9A4200F29C80E3681BB1B3F5005F9E
:101B400040F09C80236933B1B3F5806F03D0B3F5C7
:101B5000C06F40F0998063694FF6F372134200D171
:101B600023B940F68811A848FFF76CFC21680A6980
:101B700022F44052E36813430B612168CA6822F4DF
:101B8000164222F00C02A3682069034360690343F4
:101B9000E06903431343CB6021684A6922F4407231
:101BA000A36913434B61E369B3F5004F72D0236817
:101BB000964A934200F02E8102F58062934200F033
:101BC0002981FFF717FB00EB800000EB80006568C0
:101BD000AD00B0FBF5F58E4FA7FB05356D092E0165
:101BE000FFF708FB00EB800000EB80006568AD00AC
:101BF000B0FBF5F9FFF7FEFA00EB800000EB800088
:101C00006568AD00B0FBF5F5A7FB05356D094FF034
:101C1000640808FB15952D013235A7FB05356D09C4
:101C200005F0F0053544FFF7E5FA00EB800000EB26
:101C300080006668B600B0FBF6F6FFF7DBFA00EB53
:101C4000800000EB800063689B00B0FBF3F0A7FB13
:101C50000030400908FB10684FEA081808F1320804
:101C6000A7FB0837C7F3431723682F449F6027E17A
:101C700040F685116448FFF7E5FB5DE740F6861105
:101C80006148FFF7DFFB5DE740F687115E48FFF72D
:101C9000D9FB60E723685D4A93425BD002F580621E
:101CA000934257D0FFF7A6FA00EB800000EB8000CC
:101CB00065686D00B0FBF5F5554FA7FB05356D095F
:101CC0002E01FFF797FA00EB800000EB80006568BB
:101CD0006D00B0FBF5F9FFF78DFA00EB800000EB2B
:101CE000800065686D00B0FBF5F5A7FB05356D0953
:101CF0004FF0640808FB1595ED003235A7FB05355C
:101D00006D096D0005F4F8753544FFF773FA00EBC3
:101D1000800000EB800066687600B0FBF6F6FFF707
:101D200069FA00EB800000EB800063685B00B0FBA9
:101D3000F3F3A7FB03235B0908FB13684FEAC8080A
:101D400008F13208A7FB0837C7F3421723682F446E
:101D50009F60B5E0FFF764FA00EB800000EB8000C5
:101D600065686D00B0FBF5F5294FA7FB05356D09DA
:101D70002E01FFF755FA00EB800000EB800065684C
:101D80006D00B0FBF5F9FFF74BFA00EB800000EBBC
:101D9000800065686D00B0FBF5F5A7FB05356D09A2
:101DA0004FF0640808FB1595ED003235A7FB0535AB
:101DB0006D096D0005F4F8753544FFF731FA00EB55
:101DC000800000EB800066687600B0FBF6F6FFF757
:101DD00027FA00EB800000EB800063685B00B0FB3B
:101DE000F3F3A7FB03235B0908FB13684FEAC8085A
:101DF00008F13208A7FB0837C7F3421723682F44BE
:101E00009F605DE0A037A0008C2300080010014017
:101E10001F85EB51FFF704FA00EB800000EB800018
:101E20006568AD00B0FBF5F5264FA7FB05356D09DC
:101E30002E01FFF7F5F900EB800000EB80006568EC
:101E4000AD00B0FBF5F9FFF7EBF900EB800000EB1C
:101E500080006568AD00B0FBF5F5A7FB05356D09A1
:101E60004FF0640808FB15952D013235A7FB0535A9
:101E70006D0905F0F0053544FFF7D2F900EB80005D
:101E800000EB80006668B600B0FBF6F6FFF7C8F915
:101E900000EB800000EB800063689B00B0FBF3F078
:101EA000A7FB0030400908FB10684FEA081808F14A
:101EB0003208A7FB0837C7F3431723682F449F60F6
:101EC000BDE8F8831F85EB51002800F08B8010B52A
:101ED00004468369002B55D00368434A934210D0CF
:101EE000A2F54C4293420CD002F58062934208D096
:101EF00002F54C42934204D04FF480713B48FFF707
:101F0000A1FAA36943B1B3F5807F05D0B3F5007F93
:101F100002D0B3F5407F2FD1A36813B1B3F5805F32
:101F20004ED1E36913B1B3F5004F4FD194F8393076
:101F3000002B51D0242384F839302268D36823F44D
:101F40000053D3602046FFF7EFFD2268136923F4A6
:101F5000904313612268536923F02A035361226876
:101F6000D36843F40053D3600020E063202384F857
:101F7000393084F83A3010BD40F201111B48FFF7A8
:101F800061FAC9E70368184A9342C5D0A2F54C42EA
:101F90009342C1D002F580629342BDD002F58062C7
:101FA0009342B9D002F580629342B5D002F5444223
:101FB0009342B1D040F205110C48FFF743FAABE76A
:101FC00040F207110948FFF73DFAAAE74FF4847180
:101FD0000648FFF737FAA9E784F838302046FFF7BC
:101FE00099FCA7E701207047001001408C230008EE
:101FF00090F83930DBB2202B16D1B9B1C2B190F8CC
:102000003830012B16D001628284C2840023C3635E
:10201000212280F8392080F838300168CA6842F0FF
:102020008002CA601846704702207047012070473E
:10203000012070470220704790F83A30DBB2202B25
:102040001BD1E1B1EAB190F83830012B1BD081628D
:102050008285C2850023C363222280F83A2080F85B
:10206000383001684A6942F001024A610168CA6871
:1020700042F49072CA6018467047022070470120EF
:102080007047012070470220704708B50168CB688F
:1020900023F04003CB60202380F83930FFF786FB24
:1020A000002008BD08B590F83A30DBB2222B40D1B1
:1020B0008368B3F5805F0ED0036903BB03685A6879
:1020C000836A591C81621A70C38D013B9BB2C38520
:1020D000F3B100202EE0826A036943B903685B68AC
:1020E000C3F308031380836A02338362ECE7036857
:1020F0005B68DBB21380836A01338362E4E70368C1
:102100005B68826A511C816203F07F031370DBE716
:102110000268D36823F49073D3600268536923F094
:1021200001035361202380F83A30FFF739FB002088
:1021300000E0022008BD704710B50446026813682D
:10214000D168526913F00F0005D113F0200F02D0AF
:1021500011F0200F53D1002867D012F0010202D1F4
:1021600011F4907F61D013F0010F06D011F4807F3D
:1021700003D0E06B40F00100E06313F0040F04D0E3
:102180001AB1E06B40F00200E06313F0020F04D0DC
:102190001AB1E06B40F00400E06313F0080F04D0C4
:1021A0001AB1E26B42F00802E263E26B002A48D007
:1021B00013F0200F02D011F0200F24D123685B69A7
:1021C00003F04003E26B12F0080F00D13BB320464E
:1021D000FFF767FC23685A6912F0400F1BD05A6959
:1021E00022F040025A61636B8BB11A4A1A65606B28
:1021F000FEF7BAF928B3606B036D984721E02046DB
:10220000FFF750FF1DE02046FFF74CFFD6E72046C2
:10221000FFF791FF15E02046FFF78DFF11E0204604
:10222000FFF789FF0023E3630BE013F0800F02D078
:1022300011F0800F06D113F0400F02D011F0400FC3
:1022400004D110BD2046FFF73AFCFAE72046FFF71D
:102250001CFFF6E75922000808B5806B0023C385F0
:10226000C384FFF768FF08BD02440346934200D1D0
:10227000704703F8011BF9E72E2E2F7379737465ED
:102280006D2F7372632F73746D333266342D6861F2
:102290006C2F73746D3332663478785F68616C5F6D
:1022A000636F727465782E63000000002E2E2F730A
:1022B000797374656D2F7372632F73746D33326627
:1022C000342D68616C2F73746D3332663478785FA7
:1022D00068616C5F6770696F2E6300002E2E2F732C
:1022E000797374656D2F7372632F73746D333266F7
:1022F000342D68616C2F73746D3332663478785F77
:1023000068616C5F6932632E6300000000000000AA
:102310000102030401020304060708092E2E2F738D
:10232000797374656D2F7372632F73746D333266B6
:10233000342D68616C2F73746D3332663478785F36
:1023400068616C5F7263632E630000002E2E2F7332
:10235000797374656D2F7372632F73746D33326686
:10236000342D68616C2F73746D3332663478785F06
:1023700068616C5F7370692E6300000000000000EC
:102380000000000001020304060708092E2E2F7327
:1023900072632F73746D3332663478785F68616C62
:0823A0005F756172742E630089
:1023A800785634122C000020000000000024F400AD
:1023B800425554544F4E2050524553534544210AD8
:0823C80000FFFFFF325476987C
:04000005080001C529
:00000001FF
