:020000040800F2
:1000000000000220F5020008FB020008FF020008C1
:10001000170300081B03000833030008000000005A
:100020000000000000000000000000004B0300087A
:100030004F0300080000000053030008F1350008DA
:1000400065030008650300086503000865030008F0
:1000500065030008650300086503000865030008E0
:1000600065030008650300086503000865030008D0
:1000700065030008650300086503000865030008C0
:1000800065030008650300086503000865030008B0
:1000900065030008650300086503000865030008A0
:1000A0006503000865030008650300086503000890
:1000B000650300084921000865030008650300087E
:1000C0006503000865030008650300086503000870
:1000D000650300086503000865030008392100086E
:1000E0002D2100086503000865030008650300086A
:1000F0006503000865030008650300086503000840
:10010000650300086503000865030008650300082F
:10011000650300086503000865030008650300081F
:10012000650300086503000865030008650300080F
:1001300065030008000000000000000065030008DF
:1001400065030008650300086503000865030008EF
:1001500065030008650300086503000865030008DF
:1001600065030008650300086503000865030008CF
:10017000650300086503000865030008000000002F
:1001800000000000650300080000000000000000FF
:10019000650300080000000000000000650300087F
:1001A00000000000000000000000000065030008DF
:1001B000650300086503000865030008650300087F
:1001C0006503000800B583B001F03EFE384B394AA4
:1001D0001360394A1360394900E02146384B99428F
:1001E0000BD20A684B6801F10C0488689842F4D974
:1001F0001168196004330432F8E72E4B1A68314B4A
:100200009A4200D0FEE72C4B1A682F4B9A42F9D144
:10021000274B2E4A13602E4A13602E4B05E0002018
:10022000106004329342FAD80B462B4A934204D210
:10023000194651F8082B5B68F4E7244B1B6813B987
:10024000234B1B6803B1FEE703F098FA694601A847
:1002500001F0EEFD214C224BE41AA4100025AC4223
:1002600014DC204C204BE41AA4100025AC4213DC13
:100270000099019803F08AFA05461C4C1C4BE41ABD
:10028000A410002C0EDC284601F0ABFD144B53F8F3
:10029000253098470135E2E7134B53F8253098474E
:1002A0000135E3E7013C124B53F824309847E8E767
:1002B000BABADECA00000020040200206803000869
:1002C00080030008785634123254769808020020D1
:1002D0001C0400208003000890030008900300081D
:1002E00090030008900300089003000890030008A2
:1002F0009003000808B5FFF765FF00BEFEE71EF09B
:10030000040F0CBFEFF30880EFF309807146124A27
:10031000104700BEFEE700BEFEE71EF0040F0CBF54
:10032000EFF30880EFF3098071460C4A104700BED6
:10033000FEE71EF0040F0CBFEFF30880EFF3098017
:100340007146074A104700BEFEE700BEFEE700BE4A
:10035000FEE700BEFEE77047130300082F03000806
:080360004703000800BEFEE7A0
:10036800387B00080000002008020020387B0008C5
:1003780000000010000000100802002020040020E7
:0803880000000010000000104D
:1003900010B50446074B1868074BA3FB00308009D3
:1003A00000F0AEF8002221464FF0FF3000F04CF88C
:1003B000002010BD0C000020D34D621008B50B4B7F
:1003C0001A6842F400721A601A6842F480621A6075
:1003D0001A6842F480721A60032000F017F80F20A8
:1003E000FFF7D6FF03F086FB002008BD003C02406B
:1003F000024A136801331360704700BFA402002053
:10040000014B1868704700BFA402002010B50446D5
:10041000C31E042B0FD80A4AD36823F4E0631B04DD
:100420001B0C240204F4E064234343F0BF6343F451
:100430000033D36010BDA421024801F001FDEAE7BA
:1004400000ED00E00C77000870B505460C46164636
:100450000F2A25D80F2C28D81B4BDB68C3F30223A7
:10046000C3F10702042A28BF0422191D062921D935
:10047000033B4FF0FF3101FA02F224EA02049C40F0
:1004800001FA03F326EA03063443002D14DB2401AA
:10049000E4B205F1604505F5614585F8004370BD9E
:1004A000BC210A4801F0CCFCD4E7BD21074801F08B
:1004B000C7FCD1E70023DCE705F00F052401E4B217
:1004C000034B5C55EBE700BF00ED00E00C77000844
:1004D00014ED00E010B5041E08DB04F01F026409EF
:1004E00001239340044A42F8243010BDD021034830
:1004F00001F0A6FCF1E700BF00E100E00C77000886
:100500000138B0F1807F0AD2064B5860064AF021CC
:1005100082F823100020986007221A60704701209B
:10052000704700BF10E000E000ED00E010B50446A9
:10053000042800D038B9042C0BD0094A136823F0E2
:100540000403136010BD40F2B311064801F078FCBB
:10055000F1E7034A136843F004031360F2E700BFB6
:1005600010E000E00C77000890F83530DBB2022B89
:1005700003D08023436501207047052380F8353080
:100580000268136823F00103136000207047000025
:100590002DE9F04782B080460E46B04B98421FD0FE
:1005A00003F5806398421BD003F58063984217D00F
:1005B00003F58063984213D003F5806398420FD00F
:1005C00003F5806398420BD003F58063984207D00F
:1005D00003F58063984203D0C521A14801F030FCA7
:1005E000338833B37368012B1ED9112B1CD0022B17
:1005F0001AD0122B18D09B4A934215D002F58012C4
:10060000934211D002F5801293420DD0A2F5F81258
:10061000934209D002F58012934205D002F5801270
:10062000934201D0032B09D1B368022B0BD80024CD
:100630004AE0C6218A4801F003FCD3E7C721884875
:1006400001F0FEFBF0E7C821854801F0F9FBEEE779
:10065000EC21834801F0F4FB96E0062300E0002340
:100660008B4003430232804941F822307F4B1A68A5
:10067000FB4303EA0201706810F4803F01D047EAAF
:1006800002017A4A1160526803EA0201706810F4AC
:10069000003F01D047EA0201744A5160926803EAC0
:1006A0000201706810F4801F01D047EA02016F4A0E
:1006B0009160D2681340716811F4001F01D047EABD
:1006C00002036A4AD36001340F2C00F2C380012573
:1006D000A54037682F40BD42F5D17368022B01D089
:1006E000122B31D13369FBB1092B1DD0012B1BD04B
:1006F000022B19D0032B17D0042B15D0052B13D0A8
:10070000062B11D0072B0FD0082B0DD00A2B0BD0A6
:100710000B2B09D00C2B07D00D2B05D00F2B03D0A2
:10072000D9214F4801F08CFBE208083258F822002A
:1007300004F0070399000F238B4020EA030033697C
:100740008B40034348F82230D8F800204FEA440A8F
:100750004FF0030909FA0AF96FEA090909EA0202E6
:10076000736803F0030303FA0AF31343C8F8003075
:1007700073685A1E012A03D9112B01D0122B18D1EC
:10078000F368032B3FF664AFD8F8082009EA0202A9
:10079000F36803FA0AF31343C8F80830D8F80420C2
:1007A00022EA05027368C3F30015A5401543C8F893
:1007B0000450D8F80C3009EA0309B36803FA0AF3C5
:1007C00043EA0903C8F80C30736813F0805F3FF404
:1007D0007AAF00230193264B5A6C42F480425A644C
:1007E0005B6C03F480430193019BA208911C1E4B98
:1007F00053F8210004F0030399000F238B4020EAF3
:100800000300164B98453FF42AAF03F580639845E3
:1008100016D003F58063984514D003F5806398459E
:1008200012D003F58063984510D003F58063984596
:100830000ED003F5806398453FF40FAF08230FE710
:1008400001230DE702230BE7032309E7042307E74E
:10085000052305E702B0BDE8F08700BF00000240B5
:10086000407700080000111000380140003C0140B2
:100870000038024070B5064615460C4629B1012DD8
:1008800009D875B92404B46170BD40F2B1110648AD
:1008900001F0D6FAF3E74FF4D971034801F0D0FA2A
:1008A000EFE7B461F0E700BF4077000838B50546D0
:1008B0000C4619B16B695C406C6138BD4FF4E47152
:1008C000014801F0BDFAF5E74077000808B5054B8F
:1008D0005B69034200D108BD024B586101F0C8FBBF
:1008E000F9E700BF003C014003685A6912F4806FC9
:1008F0000DD06FF480625A61042303640023036304
:10090000202280F83D2080F83C30012070470020F4
:100910007047F8B506460C4617461D461CE02DB13B
:10092000FFF76EFD069BC01AA84215D9002333635A
:10093000202286F83D2086F83C3003201AE03368F8
:100940005B6924EA03039BB2B3FA83F35B099F421A
:100950000FD1B5F1FF3FE2D1C4F30743012BEED035
:1009600033689B6924EA03039BB2B3FA83F35B0900
:10097000EDE70020F8BDF8B504460D4616461F46C3
:1009800032E01A6842F400721A6023686FF48062E1
:100990005A610423236400232363202284F83D202A
:1009A00084F83C3001202DE026B1FFF729FDC01B63
:1009B000B04219D900232363202284F83D2084F813
:1009C0003C3003201EE023685B6925EA03039BB2E9
:1009D000003318BF0123A3B123685A6912F4806F52
:1009E000CFD1B6F1FF3FDFD1C5F30743012BEAD0EA
:1009F00023689B6925EA03039BB2003318BF0123D8
:100A0000E9E70020F8BD70B504460D461646236898
:100A10005B6913F0800F19D12046FFF765FFB8B965
:100A2000B5F1FF3FF3D025B1FFF7EAFC801BA842E8
:100A3000EDD9236C43F02003236400232363202299
:100A400084F83D2084F83C30032000E0002070BD95
:100A50000120FCE72DE9F04184B004460E4617461C
:100A600098460B9D0268136843F4807313600095E9
:100A70000A9B00224FF00111FFF74BFF002847D1DE
:100A8000236806F0FE061E612B460A9A2649204678
:100A9000FFF771FF20B1236C042B3ED1012338E016
:100AA0000023039323685A6903929B690393039B72
:100AB0002A460A992046FFF7A6FF034648B1236C51
:100AC000042B2CD12268136843F4007313600123B4
:100AD0001FE0B8F1010F13D023683A0A1A612A46C1
:100AE0000A992046FFF78FFF034668B1236C042B59
:100AF00017D12268136843F400731360012308E0E0
:100B00002268FFB2176104E02268FFB2176100E0BB
:100B10000323184604B0BDE8F0810323F9E703235B
:100B2000F7E70323F5E700BF020001002DE9F041DC
:100B300084B004460E46174698460B9D026813681B
:100B400043F4806313600268136843F48073136096
:100B500000950A9B00224FF00111FFF7DAFE0028F2
:100B600074D1F6B2236806F0FE021A612B460A9A87
:100B70003F492046FFF7FFFE20B1236C042B6AD1CA
:100B8000012364E00023039323685A6903929B695D
:100B90000393039B2A460A992046FFF734FF48B186
:100BA000236C042B59D12268136843F4007313603B
:100BB00001234CE0B8F1010F12D12368FFB21F618D
:100BC0002A460A992046FFF71EFF00B3236C042B28
:100BD00047D12268136843F400731360012336E0A1
:100BE00023683A0A1A612A460A992046FFF70BFF42
:100BF00048B1236C042B32D12268136843F400738C
:100C00001360012323E02368FFB21F61D8E7226845
:100C1000136843F48073136000950A9B00224FF021
:100C200001112046FFF775FEE8B9236846F001067A
:100C30001E612B460A9A0E492046FFF79CFE03468A
:100C400028B1236C042B10D1012300E003231846A4
:100C500004B0BDE8F0810323F9E70323F7E703239A
:100C6000F5E70323F3E70323F1E70323EFE700BFEF
:100C70000200010070B504460D46164623685B6904
:100C800013F0040F19D12046FFF72EFEB8B9B5F1C5
:100C9000FF3FF3D025B1FFF7B3FB801BA842EDD98E
:100CA000236C43F02003236400232363202284F871
:100CB0003D2084F83C30032000E0002070BD01207E
:100CC000FCE770B505460C4616462B685A6912F0CB
:100CD000400F22D15A6912F0100F11D124B1FFF741
:100CE0008FFB801BA042F0D92B6C43F020032B64B8
:100CF000202385F83D30002385F83C30032070BD6B
:100D00006FF010025A6100232B642B63202285F8B8
:100D10003D2085F83C300120F1E70020EFE700009E
:100D2000002800F0EB8010B504460368744A934233
:100D30000CD002F58062934208D002F580629342A3
:100D400004D040F265116F4801F07AF86368013B06
:100D50006D4A934267D8A36813B1B3F5804F68D149
:100D6000E36823F47F7323F00303002B67D1236927
:100D7000B3F5804F02D0B3F5404F66D16369012BC4
:100D800069D8A36933F0FE036BD1E3690BB1402B43
:100D90006DD1236A0BB1802B6FD194F83D30002BBD
:100DA00071D0242384F83D302268136823F00103B6
:100DB000136000F039FE554BA3FB00239B0C226807
:100DC00053606168524A914263D8013322681362CA
:100DD00063684F4A934266D85B00B0FBF3F0C0F300
:100DE0000B03032B00D804202368D861E369216A30
:100DF00022680B4313602369E16822680B43936008
:100E00006369A16922680B43D3602268136843F0C9
:100E10000103136000202064202384F83D30206308
:100E200084F83E0010BD4FF4B371364801F008F865
:100E300091E740F26711334801F002F890E74FF470
:100E4000B471304800F0FCFF91E740F269112D4881
:100E500000F0F6FF92E74FF4B5712A4800F0F0FF7A
:100E60008FE740F26B11274800F0EAFF8DE74FF45F
:100E7000B671244800F0E4FF8BE740F26D11214881
:100E800000F0DEFF89E784F83C30204601F0B0F83E
:100E900087E74FF4967202FB03F31E4AA2FB03237B
:100EA0009B09013392E7A16889B903EB4302B0FBC8
:100EB000F2F2C2F30B02B2FA82F25209E2B991B92C
:100EC00003EB4303B0FBF3F040F400408CE703EB8B
:100ED000830202EB8202B0FBF2F2C2F30B02B2FA1F
:100EE00082F25209EAE703EB830303EB8303B0FBCF
:100EF000F3F040F4404077E7012075E701207047A8
:100F000000540040707700087F1A060083DE1B4300
:100F1000A0860100D34D62102DE9F04782B004464F
:100F2000894692461D460A9EBDF82C70FFF768FA66
:100F30008046012D01D0102D09D194F83D30DBB24F
:100F4000202B0AD00223184602B0BDE8F08740F6F5
:100F50005511454800F074FFEFE7CDF800801923E4
:100F6000012242492046FFF7D4FC002874D194F8AE
:100F70003C30012B72D0012384F83C302268136886
:100F800023F400631360212384F83D30402384F868
:100F90003E3000232364A3F58033E362CDF8048060
:100FA0000C9B00932B46524649462046FFF752FDC4
:100FB000C0B1236C042B04D1002384F83C300123FE
:100FC000C1E7002384F83C300323BCE7236C042BE7
:100FD00046D12268136843F4007313600123B2E71B
:100FE0001F461646CFB142460C992046FFF70BFD2F
:100FF0000028EBD1721C2368317819617B1E9BB2EB
:101000002168486910F0040FEAD0002BE8D0B21C28
:1010100073780B61023FBBB2E2E742460C9920466F
:10102000FFF728FE034648B1236C042B1AD122682F
:10103000136843F400731360012384E721680A688E
:1010400042F400720A60202284F83D20002284F8D5
:101050003E2084F83C2076E7022374E7022372E7FF
:10106000032370E703236EE7707700080200100087
:101070002DE9F04786B005468946924698460E9E71
:10108000BDF83C40FFF7BCF90746B8F1010F02D0AC
:10109000B8F1100F0AD195F83D30DBB2202B0BD000
:1010A0004FF00208404606B0BDE8F08740F6CC118C
:1010B0008D4800F0C5FEEEE70097192301228B4909
:1010C0002846FFF726FC002840F0FE8095F83C30CB
:1010D000012B00F0FC80012385F83C302A6813685E
:1010E00023F400631360222385F83D30402385F804
:1010F0003E3000232B64A3F58033EB620197109BF5
:1011000000934346524649462846FFF70FFD804666
:1011100070B12B6C042B05D1002385F83C304FF0C7
:101120000108BFE7002385F83C304FF00308B9E71A
:1011300064B9002302932B685A6902929A69029259
:10114000029A1A6842F400721A6060E0012C0AD018
:10115000022C1AD0002305932B685A6905929B69CB
:101160000593059B53E02A68136823F4806313609A
:10117000002303932B685A6903929A690392039A96
:101180001A6842F400721A6041E02A68136823F476
:10119000806313602A68136843F4006313600023BC
:1011A00004932B685A6904929B690493049B2EE074
:1011B0003A4610992846FFF784FD30B92B681B6921
:1011C0003370013CA4B2013621E02B6C202B02D0FD
:1011D0004FF0010866E74FF0030863E70097109BA4
:1011E000002243492846FFF794FB002872D12A6861
:1011F000136843F4007313602B681A69334603F8CD
:10120000022B2A6812697270023CA4B21E46002C9E
:1012100051D0032C2CD8012CCAD0022CDED0009740
:10122000109B002232492846FFF773FB002854D157
:101230002A68136823F4806313602B681B6933707A
:101240000097109B00222A492846FFF762FB0028DE
:1012500046D12A68136843F4007313602B681B6936
:1012600073702B681B69B370033CA4B20336CEE7DE
:101270003A4610992846FFF724FD80B92B681B6970
:10128000701C3370631E9BB22A68516911F0040F01
:101290000ED013697370023CA4B20236B7E72B6C10
:1012A000202B02D04FF00108FCE64FF00308F9E6CE
:1012B0001C460646ABE7202385F83D30002385F821
:1012C0003E3085F83C30EDE64FF00208EAE64FF09C
:1012D0000208E7E64FF00308E4E64FF00308E1E612
:1012E0004FF00308DEE600BF707700080200100030
:1012F0000400010030B583B0044603680F2B29D8E1
:10130000236813F0010F3DD06368012B01D9052B31
:1013100025D1A34B9B6803F00C03042B29D0A04BD1
:101320009B6803F00C03082B1ED022799D4B1A708A
:101330006368002B50D0FFF763F80546984B1B6895
:1013400013F4003F1ED1FFF75BF8401B6428F5D96A
:101350000320E3E1F521944800F072FDD0E7FA2183
:10136000914800F06DFDD4E78D4B5B6813F4800F5E
:10137000DBD08B4B1B6813F4003F03D06368002B5A
:1013800000F0C981236813F0020F5DD0E368012BE0
:1013900031D823691F2B34D8814B9B6813F00C0F75
:1013A0003AD07F4B9B6803F00C03082B2FD0E368E7
:1013B000002B74D07D4B01221A60FFF721F80546FF
:1013C000774B1B6813F0020F5AD1FFF719F8401B37
:1013D0000228F5D90320A1E1FFF712F80546704B6A
:1013E0001B6813F4003FCDD0FFF70AF8401B6428B8
:1013F000F5D9032092E14FF496716B4800F020FD7F
:10140000C7E740F22D11684800F01AFDC4E7644BAD
:101410005B6813F4800FCAD1614B1B6813F0020F95
:1014200004D0E368012B01D0012077E15C48036818
:1014300023F0F8032169F82292FAA2F2B2FA82F2BA
:1014400001FA02F213430360236813F0080F50D02F
:101450006369012B35D86369002B38D0544B0122C6
:101460001A60FEF7CDFF05464D4B5B6F13F0020F80
:101470003FD1FEF7C5FF401B0228F5D903204DE1FF
:101480004748036823F0F8032169F82292FAA2F290
:10149000B2FA82F201FA02F213430360D4E7434B3B
:1014A00000221A60FEF7ACFF05463D4B1B6813F0A7
:1014B000020FC9D0FEF7A4FF401B0228F5D9032074
:1014C0002CE140F26D11384800F0BAFCC3E7384B0C
:1014D00000221A60FEF794FF0546314B5B6F13F054
:1014E000020F06D0FEF78CFF401B0228F5D903201F
:1014F00014E1236813F0040F60D0A368012B01D915
:10150000052B1FD100230193254B1A6C42F080520A
:101510001A641B6C03F080530193019B254A1368E6
:1015200043F480731360FEF76BFF0546214B1B6885
:1015300013F4807F0CD1FEF763FF401B0228F5D91E
:101540000320EBE040F29711174800F079FCD9E74F
:10155000227A194B1A70A36883B1FEF751FF054632
:101560000F4B1B6F13F0020F28D1FEF749FF401BF2
:1015700041F288339842F3D90320CFE0FEF740FFD1
:101580000546074B1B6F13F0020F17D0FEF738FF0D
:10159000401B41F288339842F3D90320BEE000BFDC
:1015A0000038024002380240B0770008000047428D
:1015B000800E47420070004070380240A369022B41
:1015C00039D8A369002B00F0A880564A926802F02F
:1015D0000C02082A00F0A480022B40F08880E36906
:1015E00013B1B3F5800F2CD1236A3F2B2FD8636A38
:1015F000323BB3F5BF7F30D8A36A022B05D0042B52
:1016000003D0062B01D0082B2DD1E36A043B0B2B12
:101610002FD8454B00221A60FEF7F2FE0546414BDB
:101620001B6813F0007F2AD0FEF7EAFE401B022859
:10163000F5D9032072E04FF4E6713C4800F000FC5D
:10164000BFE740F2D511394800F0FAFBCCE74FF480
:10165000EB71364800F0F4FBC9E740F2D71133488C
:1016600000F0EEFBC8E74FF4EC71304800F0E8FB07
:10167000CBE740F2D9112D4800F0E2FBC9E7E3695E
:10168000226A1343616A47F6C07292FAA2F2B2FA72
:1016900082F201FA02F21343A26A5208013A4FF4AD
:1016A000403191FAA1F1B1FA81F18A401343E16A24
:1016B0004FF0706292FAA2F2B2FA82F201FA02F2EA
:1016C0001343184A5360184B01221A60FEF798FE24
:1016D0000446144B1B6813F0007F06D1FEF790FE02
:1016E000001B0228F5D9032018E0002016E00E4B5D
:1016F00000221A60FEF784FE04460A4B1B6813F0B2
:10170000007F06D0FEF77CFE001B0228F5D90320DF
:1017100004E0002002E0012000E0002003B030BD22
:101720000120FBE70038024060004742B077000824
:10173000214B9B6803F00C03042B3AD0082B01D0FB
:101740001E4870471C4B586800F03F005B6813F45C
:10175000800F1ED01A4AB2FBF0F2174B586847F6BA
:10176000C073184093FAA3F3B3FA83F3D84000FB95
:1017700002F0114B5B6803F440334FF4403292FAAD
:10178000A2F2B2FA82F2D34001335B00B0FBF3F075
:1017900070470A4AB2FBF0F2074B586847F6C0732D
:1017A000184093FAA3F3B3FA83F3D84000FB02F096
:1017B000DFE70348704700BF003802400024F40010
:1017C00000127A0070B504460D460368013B0E2BEB
:1017D00011D80F2D15D88C4B1B6803F00F03AB42AB
:1017E00015D2EBB2884A1370136803F00F03AB42B3
:1017F0000DD0012070BD40F23721844800F020FB5D
:10180000E7E74FF40E71814800F01AFBE3E7236825
:1018100013F0020F18D0A3687BB1802B0DD0902B52
:101820000BD0A02B09D0B02B07D0C02B05D0D02BCC
:1018300003D0E02B01D0F02B37D1754A936823F009
:10184000F003A1680B439360236813F0010F73D07A
:101850006368032B2FD86368012B32D09A1E012AAC
:1018600036D96B4A126812F0020F00F0CA8068493C
:101870008A6822F0030213438B60FEF7C1FD06461F
:101880006368012B2BD0022B38D0032B45D0604B43
:101890009B6813F00C0F4FD0FEF7B2FD801B41F296
:1018A00088339842F3D90320A4E740F24F215748E8
:1018B00000F0C6FAC1E740F25621544800F0C0FAE1
:1018C000C9E7534A126812F4003FD0D1012091E7D2
:1018D0004F4A126812F0007FC9D101208AE74C4BB1
:1018E0009B6803F00C03042B26D0FEF789FD801BB8
:1018F00041F288339842F2D903207BE7444B9B683E
:1019000003F00C03082B17D0FEF77AFD801B41F281
:1019100088339842F2D903206CE73D4B9B6803F073
:101920000C030C2B08D0FEF76BFD801B41F28833B3
:101930009842F2D903205DE7334B1B6803F00F0395
:10194000AB4209D9EAB2304B1A701B6803F00F039F
:10195000AB4201D001204DE7236813F0040F14D0EF
:10196000E3685BB1B3F5805F08D0B3F5A05F05D045
:10197000B3F5C05F02D0B3F5E05F36D1244A936877
:1019800023F4E053E1680B439360236813F0080FDE
:1019900015D023695BB1B3F5805F08D0B3F5A05FC4
:1019A00005D0B3F5C05F02D0B3F5E05F23D1184A8C
:1019B000936823F46043216943EAC1039360FFF70E
:1019C000B7FE134B9B6803F0F003F02292FAA2F2E9
:1019D000B2FA82F2D3400F4AD35CD8400E4B186063
:1019E0000F20FEF7D5FC002004E74FF42D710748C7
:1019F00000F026FAC2E740F2BB21044800F020FACA
:101A0000D5E70120F6E600BF003C0240B0770008B1
:101A100000380240A07700080C000020014B186835
:101A2000704700BF0C00002008B5FFF7F7FF074B19
:101A30009B6803F4E0534FF4E05292FAA2F2B2FA38
:101A400082F2D340024AD35CD84008BD003802403D
:101A5000A077000808B5FFF7E1FF074B9B6803F488
:101A600060434FF4604292FAA2F2B2FA82F2D3409B
:101A7000024AD35CD84008BD00380240A077000875
:101A8000002800F0E58010B504460368714A9342CF
:101A900010D0A2F5784293420CD002F580629342B6
:101AA00008D002F57842934204D040F20B116A4804
:101AB00000F0C6F9636813B1B3F5827F76D1A368ED
:101AC0002BB1B3F5806F02D0B3F5004F74D1E3684A
:101AD000B3F5006F01D0002B74D1A369B3F5007F7B
:101AE00003D013B1B3F5802F72D1E3696BB1082B2A
:101AF0000BD0102B09D0182B07D0202B05D0282B6A
:101B000003D0302B01D0382B68D1236A0BB1802B46
:101B10006AD1636A0BB1102B6CD1636A33B9236944
:101B20000BB1022B6CD16369012B6FD8A36A13B17F
:101B3000B3F5005F70D1A36AB3F5005F72D094F87B
:101B40005130002B7AD0022384F851302268136878
:101B500023F0400313606368A2681343E2681343F1
:101B60002269134362691343A26902F400721343AA
:101B7000E2691343226A1343A16A22680B4313608C
:101B8000638B03F00403616A22680B435360A36A0A
:101B9000B3F5005F58D02268D36923F40063D361A2
:101BA00000206065012384F8513010BD4FF4867128
:101BB000294800F045F982E740F20D11264800F06F
:101BC0003FF984E74FF48771234800F039F984E73F
:101BD00040F20F11204800F033F986E74FF4887186
:101BE0001D4800F02DF990E740F211111A4800F05D
:101BF00027F98EE74FF48971174800F021F98CE737
:101C000040F21511144800F01BF98CE74FF48B716A
:101C1000114800F015F989E740F219110E4800F05B
:101C20000FF988E7E36A013B4FF6FE72934286D9CB
:101C30004FF48E71084800F003F980E784F85030C3
:101C4000204601F073FC7EE72368E26A1A61A2E78E
:101C50000120704700300140E0770008704770476E
:101C60007047704710B5044603681A6912F0020FF6
:101C700011D0DA6812F0020F0DD06FF002021A6173
:101C80000123037603689B6913F0030F70D0FFF7FD
:101C9000E6FF0023237623681A6912F0040F12D09E
:101CA000DA6812F0040F0ED06FF004021A610223FA
:101CB000237623689B6913F4407F5FD02046FFF7AB
:101CC000CEFF0023237623681A6912F0080F12D082
:101CD000DA6812F0080F0ED06FF008021A610423C0
:101CE00023762368DB6913F0030F4ED02046FFF7FD
:101CF000B6FF0023237623681A6912F0100F12D062
:101D0000DA6812F0100F0ED06FF010021A6108237B
:101D100023762368DB6913F4407F3DD02046FFF72C
:101D20009EFF0023237623681A6912F0010F03D067
:101D3000DA6812F0010F36D123681A6912F0800FA9
:101D400003D0DA6812F0800F34D123681A6912F0D8
:101D5000400F03D0DA6812F0400F32D123681A69BD
:101D600012F0200F03D0DA6812F0200F30D110BD2E
:101D7000FFF774FF2046FFF773FF8AE72046FFF75F
:101D80006DFF2046FFF76CFF9BE72046FFF766FFDD
:101D90002046FFF765FFACE72046FFF75FFF2046D0
:101DA000FFF75EFFBDE76FF001021A61204600F009
:101DB000DFF9C1E76FF080021A61204600F010F8E9
:101DC000C3E76FF040021A612046FFF74AFFC5E7FC
:101DD0006FF020021A61204600F001F8C7E7704753
:101DE0007047FEE708B50120FFF7FBFF08B5034683
:101DF0000C4A12685AB10B4A1068033323F00303EC
:101E00000344094A934206D8064A136008BD054AAE
:101E100006491160EFE703F0A5FB0C2303604FF0C8
:101E2000FF30F3E70C02002000FC0120200400201A
:101E300001230360014B0B60704700BF04000020CA
:101E400008B5FFF7CFFF000008B500F009F8024A17
:101E5000024B9A6008BD00BF0000000800ED00E0E2
:101E60000C4B1A6842F001021A60002199601A684E
:101E700022F0847222F480321A60074A5A601A688B
:101E800022F480221A60D960044B4FF000629A60FD
:101E9000704700BF003802401030002400ED00E021
:101EA000224B9B6803F00C03042B14D0082B16D094
:101EB0001BB11F4B1F4A1A6002E01D4B1D4A1A60DE
:101EC0001A4B9B68C3F303131B4AD15C184A13686F
:101ED000CB4013607047164B184A1A60F0E7134B5B
:101EE0005A685B6803F03F0312F4800F13D0134A63
:101EF000B2FBF3F20D4B5B68C3F3881303FB02F3F1
:101F00000A4A5268C2F3014201325200B3FBF2F3B3
:101F1000074A1360D4E7074AB2FBF3F2034B5B684E
:101F2000C3F3881303FB02F3EAE700BF0038024063
:101F30000C0000200024F4001078000800127A0041
:101F400030B591B0194A136B43F0020313632C228E
:101F5000002105A803F00CFB012401940294022344
:101F600003930494802206920794089309944FF4F3
:101F700080420B920C940D930E940D4D01A92846AE
:101F8000FEF706FB06A92846FEF702FB0BA928462A
:101F9000FEF7FEFA074B196804FA01F1002289B234
:101FA0002846FEF767FC11B030BD00BF0038024084
:101FB000000402409802002008B50A480A4B03605A
:101FC0004FF480420261094B436000234361826009
:101FD000C36103623023C360FE238361FEF7A0FE6A
:101FE00008BD00BFAC02002000540040A0860100E4
:101FF000F0B589B0002500951B4C236B43F002031C
:102000002363236B03F002030093009B0195236B72
:1020100043F002032363236B03F002030193019B4C
:102020004FF4807303931223049301230593022337
:102030000693042707970D4E03A93046FEF7A8FA2A
:102040004FF400730393079703A93046FEF7A0FAF5
:102050000295236C43F400132364236C03F40013F0
:102060000293029B09B0F0BD003802400004024018
:1020700038B50546FEF7C4F90446244B1B68C31A5D
:10208000962B02D9B5F5005F02D0204B1C6038BDFD
:1020900011221F491F4802F077F81F4B1B68002BC5
:1020A000FBD01D4B00221A6001221C49194802F086
:1020B0008FF81B4B1B68002BFBD00022184B1A60BB
:1020C000184B1B680121994089B21748FEF7D2FBD3
:1020D000124B93F90030312B07D0322B12D0332B17
:1020E00006D1104B0E221A6002E00E4B00221A603D
:1020F00001220C4B196802FA01F189B20A48FEF775
:10210000B9FBC2E7074B07221A60F1E7640200201F
:1021100014000020DC03002018020020000300202F
:1021200014020020980200200004024008B54FF479
:102130000050FEF7CBFB08BD08B5024802F0C8F816
:1021400008BD00BFDC03002008B50248FFF78AFD88
:1021500008BD00BF60030020014B01221A607047D8
:1021600014020020014B01221A607047180200205F
:102170002DE9F04F87B001213948FEF797FB4FF06A
:10218000FF33029306230193364C009401233B2234
:10219000D0213548FEF76CFF3449204600F0D6F8D0
:1021A000334B1A68511C1960324981FB0231D31735
:1021B000C3EBA10303EB830359008A4202D007B0AB
:1021C000BDE8F08FDFF8C4A02B49DAF8000003F077
:1021D000B7F802F09BFB06460F46284D26492868B3
:1021E00003F0AEF802F092FB80468946244C224967
:1021F000206803F0A5F802F089FBDFF870B016A3A1
:10220000D3E9002302F0DAFBCDE9040112A3D3E9FC
:1022100000234046494602F0D1FBCDE902010EA35E
:10222000D3E900233046394602F0C8FBCDE900016E
:10223000144A3221584603F0F1FD4FF0FF333222A9
:102240005946114801F030FF0023CAF800302B60D6
:102250002360B4E7AFF300801F85EB51B89E2340A5
:102260000004024028020020AC02002030020020BE
:1022700010000020676666660000204120020020F2
:102280002402002030780008DC0300201C0200201B
:10229000F0B587B00C460023274A1360274A136025
:1022A000274A1360002302E00022E2540133032B8B
:1022B000FAD990F9002090F90130DBB290F90210C0
:1022C00090F90360F6B246EA012690F9041090F9FD
:1022D0000550EDB245EA012543EA022002F028FF4D
:1022E000184903F02DF80746134B1860304602F0EA
:1022F0001FFF144903F024F80646104B18602846C7
:1023000002F016FF0F4903F01BF80D4B186002F0A6
:10231000FDFACDE90401304602F0F8FACDE90201F8
:10232000384602F0F3FACDE90001074A04212046BD
:1023300003F074FD07B0F0BD7402002078020020A5
:102340007C020020000083424C7800082DE9F04117
:1023500086B00C460023384A1360384A1360384A66
:102360001360002302E00022E2540133032BFAD968
:1023700090F9002090F90130DBB290F9021090F949
:102380000360F6B246EA012690F9041090F9055070
:10239000EDB245EA012543EA022002F0C9FE4FF002
:1023A000645102F019FF0746234B1860304602F0D3
:1023B000BFFE4FF0645102F00FFF06461F4B18603E
:1023C000284602F0B5FE4FF0645102F005FF0546C5
:1023D0001B4B1860DFF870803946D8F8000002F017
:1023E000F3FDC8F80000DFF864803146D8F800003B
:1023F00002F0EAFDC8F80000DFF854802946D8F85A
:10240000000002F0E1FDC8F80000284602F07EFA64
:10241000CDE90401304602F079FACDE902013846EF
:1024200002F074FACDE90001064A0421204603F0C7
:10243000F5FC06B0BDE8F081680200206C020020C7
:1024400070020020207800081C02002020020020DA
:1024500024020020F0B587B00C460023274A136001
:10246000274A1360274A1360002302E00022E25447
:102470000133032BFAD990F9012090F90030DBB237
:1024800090F9031090F90260F6B246EA012690F93D
:10249000051090F90450EDB245EA012543EA022007
:1024A00002F046FE184902F097FE0746134B1860EB
:1024B000304602F03DFE144902F08EFE0646104BF7
:1024C0001860284602F034FE0F4902F085FE0D4BDD
:1024D000186002F01BFACDE90401304602F016FA4A
:1024E000CDE90201384602F011FACDE90001074AB0
:1024F0000421204603F092FC07B0F0BD80020020CA
:1025000084020020880200209A99193E74780008FD
:1025100010B504464FF07C5102F05EFE23460A4C93
:10252000A4EB63040146204602F056FE0146204615
:1025300002F052FE01464FF07F5002F043FD01468B
:10254000204602F049FE10BDDF59375F2DE9F04FFC
:1025500091B004460D4616460093DFF8D482D8F8B1
:10256000000000F10040214602F036FE8146AF4FE8
:102570003868294602F030FE0146484602F022FD46
:102580008146DFF8B0A2DAF80000314602F024FEFE
:102590000146484602F016FD4FF07C5102F01CFE49
:1025A0000190DFF89492D9F80000214602F014FE61
:1025B00083463868314602F00FFE0146584602F065
:1025C00003FD8346DAF80000294602F005FE0146C5
:1025D000584602F0F7FC4FF07C5102F0FDFD0290EE
:1025E000D9F80000294602F0F7FD8346D8F800002C
:1025F000314602F0F1FD0146584602F0E3FC834605
:10260000DAF80000214602F0E7FD0146584602F0E4
:10261000DBFC4FF07C5102F0DFFD0390D9F80000A5
:10262000314602F0D9FD0646D8F80000294602F0EE
:10263000D3FD0146304602F0C7FC05463868214606
:1026400002F0CAFD0146284602F0BCFC4FF07C5166
:1026500002F0C2FD04900021009802F051FF58B131
:1026600000211A9802F04CFF30B100211B9802F0B3
:1026700047FF002840F0A881009D2946284602F027
:10268000ABFD04461A99084602F0A6FD0146204615
:1026900002F09AFC04461B99084602F09DFD014693
:1026A000204602F091FCFFF733FF0446014628461E
:1026B00002F092FD009021461A9802F08DFD8346AB
:1026C00021461B9802F088FD0690DFF86C91D9F83E
:1026D0000000014602F078FC0790554D286801463D
:1026E00002F072FC0890514C2068014602F06CFC2C
:1026F0000990504E3068014602F066FC0A90D9F805
:1027000000004FF0814102F067FD074628684FF056
:10271000814102F061FD059020684FF0814102F097
:102720005BFD804628684FF0824102F055FD0B901A
:1027300020684FF0824102F04FFD0C90D9F8000064
:10274000D9F8001002F048FD0F902868296802F0BF
:1027500043FD0D902068216802F03EFD81463068FF
:10276000316802F039FD0E904946384602F034FDDA
:1027700082460999009802F02FFD0146504602F06A
:1027800023FC82460D99384602F026FD014650464C
:1027900002F01AFC07460899584602F01DFD014652
:1027A000384602F00FFC07460E99059802F014FD1A
:1027B00082460A99009802F00FFD0146504602F049
:1027C00001FC82464FF081410F9802F005FD0F9009
:1027D000296802F001FD0146504602F0F5FB05466E
:1027E0000799584602F0F8FC0146284602F0EAFB39
:1027F000059902F0E7FB0546DDF834A051460B9839
:1028000002F0EAFC0146284602F0DEFB0546494696
:102810000B9802F0E1FC0146284602F0D5FB054684
:102820000599069802F0D8FC08E000BF900200204D
:102830008C020020940200202C0000200146284633
:1028400002F0C2FB054621680F9802F0C5FC044661
:102850000799009802F0C0FC0146204602F0B4FB44
:1028600004460E99404602F0B7FC0146204602F0AD
:10287000ABFB04460A99584602F0AEFC01462046DE
:1028800002F0A0FB414602F09DFB044651460C9825
:1028900002F0A2FC0146204602F096FB044649469F
:1028A0000C9802F099FC0146204602F08DFB04468C
:1028B0004146069802F090FC0146204602F084FB57
:1028C00080464FF08141504602F086FC316802F0AC
:1028D00083FC04460899009802F07EFC01462046DD
:1028E00002F070FB04464FF08141484602F074FC50
:1028F000316802F071FC0146204602F065FB044697
:102900000999584602F068FC0146204602F05AFB3D
:1029100006463946384602F05FFC044629462846FA
:1029200002F05AFC0146204602F04EFB04464146A6
:10293000404602F051FC0146204602F045FB0446A9
:102940003146304602F048FC0146204602F03CFB8E
:10295000FFF7DEFD04460146384602F03DFC07461F
:102960002146284602F038FC05462146404602F042
:1029700033FC80462146304602F02EFC0646414C90
:102980002068394602F028FC0146019802F01AFB43
:1029900001902068294602F01FFC0146029802F0CF
:1029A00011FB02902068414602F016FC0146039894
:1029B00002F008FB03902068314602F00DFC01464E
:1029C000049802F0FFFA04902F49019802F004FCE9
:1029D0002E4F396802F0F8FA38602B49029802F05D
:1029E000FBFB2B4E316802F0EFFA3060264903986A
:1029F00002F0F2FB274D296802F0E6FA286022492E
:102A0000049802F0E9FB244C216802F0DDFA206012
:102A10003868396802F0E0FB80463068316802F0BF
:102A2000DBFB0146404602F0CFFA80462868296861
:102A300002F0D2FB0146404602F0C6FA804620680A
:102A4000216802F0C9FB0146404602F0BDFAFFF7DB
:102A50005FFD80463868414602F0BEFB3860306852
:102A6000414602F0B9FB30602868414602F0B4FBF1
:102A700028602068414602F0AFFB206011B0BDE83D
:102A8000F08F00BF280000200AD7A33B2C000020B5
:102A90008C02002090020020940200202DE9F04FCB
:102AA000A1B004460D461646039300212C9802F06F
:102AB00027FD58B100212D9802F022FD30B10021F0
:102AC0002E9802F01DFD002840F0FD84DFF8D08232
:102AD000D8F8000000F10040214602F07DFB81465D
:102AE000AE4F3868294602F077FB0146484602F0AF
:102AF00069FA8146DFF8ACA2DAF80000314602F04C
:102B00006BFB0146484602F05DFA4FF07C5102F043
:102B100063FB0B90DFF89092D9F80000214602F099
:102B20005BFB83463868314602F056FB0146584647
:102B300002F04AFA8346DAF80000294602F04CFB1C
:102B40000146584602F03EFA4FF07C5102F044FB39
:102B50000C90D9F80000294602F03EFB8346D8F8D5
:102B60000000314602F038FB0146584602F02AFACE
:102B70008346DAF80000214602F02EFB0146584653
:102B800002F022FA4FF07C5102F026FB0D90D9F8AA
:102B90000000314602F020FB0646D8F80000294626
:102BA00002F01AFB0146304602F00EFA054638687C
:102BB000214602F011FB0146284602F003FA4FF0CD
:102BC0007C5102F009FB0E900021039802F098FC62
:102BD00058B100212A9802F093FC30B100212B98C3
:102BE00002F08EFC002840F01184039D29462846FF
:102BF00002F0F2FA04462A99084602F0EDFA01467C
:102C0000204602F0E1F904462B99084602F0E4FA66
:102C10000146204602F0D8F9FFF77AFC0446014647
:102C2000284602F0D9FA179021462A9802F0D4FAE1
:102C3000189021462B9802F0CFFA19902C9908464B
:102C400002F0CAFA04462D99084602F0C5FA014678
:102C5000204602F0B9F904462E99084602F0BCFA63
:102C60000146204602F0B0F9FFF752FC0446014647
:102C70002C9802F0B1FA824621462D9802F0ACFA67
:102C8000054621462E9802F0A7FA0446DFF818817F
:102C9000D8F80000014602F097F9514602F09CFA7C
:102CA0000646D8F80000014602F08EF90495294640
:102CB00002F092FA0390D8F80000014602F084F97D
:102CC0000594214602F088FA1090354F3868014685
:102CD00002F07AF9514602F07FFA1190D8F800001C
:102CE000014602F071F913903868014602F06CF960
:102CF00008902A4D2868014602F066F90990294C8F
:102D00002068014602F060F91490D8F800000146EE
:102D100002F05AF9296802F05FFA1A902868014611
:102D200002F052F9216802F057FA1B90D8F800001F
:102D3000D8F8001002F050FA8146D8F8000039683F
:102D400002F04AFA0F90D8F80000296802F044FA1D
:102D50001590D8F80000216802F03EFA1C903868FF
:102D6000396802F039FA07903868296802F034FAB5
:102D70001D903868216802F02FFA0A9028682968A7
:102D800002F02AFA06902868216802F025FA1E90BF
:102D90002068216802F020FA834607E090020020B4
:102DA0008C020020940200202C000020CDF84890D6
:102DB0004946504602F010FA81462068039902F015
:102DC0000BFA0146484602F0FDF881462868109942
:102DD00002F002FA0146484602F0F6F881460799E9
:102DE000504602F0F9F90146484602F0EDF88146F6
:102DF0000899049802F0F0F9296802F0EDF901460B
:102E0000484602F0E1F881460899059802F0E4F995
:102E1000216802F0E1F90146484602F0D5F8814602
:102E20000699504602F0D8F90146484602F0CAF821
:102E300081465946504602F0CFF90146484602F015
:102E4000C1F816902068314602F0C6F98146129901
:102E5000049802F0C1F90146484602F0B5F88146EF
:102E60003868109902F0B8F90146484602F0AAF80D
:102E700081462868119902F0AFF90146484602F0F0
:102E8000A3F881460799049802F0A6F9014648463E
:102E900002F098F881460699049802F09DF90146DF
:102EA000484602F091F881460999059802F094F994
:102EB000216802F091F90146484602F085F8814602
:102EC0005946049802F088F90146484602F07AF81B
:102ED0008146169B1946184602F07EF91090494625
:102EE000484602F079F90146109802F06DF801F0B9
:102EF0000DFD01F085FA02F011F8814606F100405F
:102F0000296802F069F906463868039902F064F905
:102F10000146304602F058F806461299059802F02C
:102F20005BF90146304602F04FF8064620681199D9
:102F300002F052F90146304602F046F8064607997B
:102F4000059802F049F90146304602F03BF8064682
:102F50000999049802F040F9216802F03DF9014610
:102F6000304602F031F806460699059802F034F929
:102F70000146304602F026F806465946059802F00A
:102F80002BF90146304602F01FF806464946CDF8B7
:102F90000C90484602F018F81F903146304602F077
:102FA00013F81690099B03F10049DDF828C061462B
:102FB000604602F009F81A9902F004F8179902F035
:102FC00001F810900146484602F006F98146DDF806
:102FD0003CE07146704601F0F7FF1B9901F0F4FFE9
:102FE000189901F0EFFF1190089902F0F5F80146E9
:102FF000484601F0E9FF81462868314602F0ECF8C6
:10300000179006994FF07C5001F0DCFF594601F013
:10301000D9FF039902F0E0F8834615990A9801F068
:10302000D1FF314602F0D8F80146584601F0CCFFF6
:10303000514601F0C7FF12900146179802F0CCF8F4
:103040000146484601F0BEFF8146DDF80CB00BF1A9
:10305000004321681793184602F0BEF8824638688C
:10306000314602F0B9F80146504601F0ADFF824604
:103070001C991D9801F0A6FFCDF80CB0594602F03E
:10308000ABF883461E990F9801F09EFF314602F07F
:10309000A3F80146584601F097FF049901F092FF0A
:1030A00004900146504602F097F80146484601F068
:1030B0008BFF81462868DDF80CB0594602F08CF889
:1030C00082460A99159801F07FFFCDF80CB0594659
:1030D00002F082F8834607994FF07C5001F072FFAE
:1030E000069901F06FFF314602F076F80146584626
:1030F00001F06AFF059901F065FF05900146504611
:1031000002F06AF80146484601F05EFF0A90149901
:10311000109802F061F881461399119802F05CF85A
:103120000146484601F050FF814638684FF0814122
:1031300002F052F88346079A1146104601F044FF08
:1031400001464FF07E5001F03DFF8246069B194636
:10315000184601F039FF0146504601F033FF199936
:1031600001F030FF82460146584602F035F801462C
:10317000484601F027FF81462068314602F02CF8CE
:103180000146129802F028F80146484601F01CFF5B
:1031900081462868039902F01FF88346D8F800009A
:1031A000314602F019F80146584601F00DFF01467C
:1031B000049802F011F80146484601F005FF8146E7
:1031C0002068039902F008F883463868169902F0DF
:1031D00003F80146584601F0F5FE0146059801F056
:1031E000FBFF0146484601F0EFFE8146139B03F1C9
:1031F0000041109801F0F0FF83461499119801F0F6
:10320000EBFF0146584601F0DFFE834628684FF089
:10321000814101F0E1FF0146504601F0DDFF01462A
:10322000584601F0CFFE83461F9B03F1004A2968F0
:10323000504601F0D1FF0546D8F80000314601F0B4
:10324000CBFF0146284601F0BDFE0146129801F071
:10325000C3FF0146584601F0B7FE05463868DDF861
:103260000CB0594601F0B8FF07462068314601F01E
:10327000B3FF0146384601F0A7FE0146049801F06D
:10328000ABFF0146284601F09FFE0446D8F8000037
:10329000CDF80CB0594601F09FFF05468F4F3868B6
:1032A000169901F099FF0146284601F08BFE014670
:1032B000059801F091FF0146204601F085FE044685
:1032C0000899109801F088FF05460999119801F0B6
:1032D00083FF0146284601F077FE8346804B19683C
:1032E000504601F079FF82467E4D2868314601F054
:1032F00073FF0146504601F067FE0146129801F047
:103300006BFF0146584601F05FFE8246D8F8001078
:10331000179801F061FF80463868314601F05CFF84
:103320000146404601F050FE0146049801F054FF6A
:103330000146504601F048FE06462868039901F010
:103340004BFF0146059801F047FF0146304601F06A
:103350003BFE06460A9F3946384601F03DFF0546CA
:103360004946484601F038FF0146284601F02CFE48
:1033700005462146204601F02FFF0146284601F070
:1033800023FE05463146304601F026FF0146284619
:1033900001F01AFEFFF7BCF805460146384601F079
:1033A0001BFF07462946484601F016FF804629467E
:1033B000204601F011FF04462946304601F00CFF7B
:1033C0000646494D2868394601F006FF01460B982C
:1033D00001F0F8FD0B902868414601F0FDFE014622
:1033E0000C9801F0EFFD0C902868214601F0F4FEE6
:1033F00001460D9801F0E6FD0D902868314601F078
:10340000EBFE01460E9801F0DDFD0E9037490B985A
:1034100001F0E2FE364F396801F0D6FD38603349DD
:103420000C9801F0D9FE2F4E316801F0CDFD3060CF
:103430002E490D9801F0D0FE284D296801F0C4FDF9
:1034400028602A490E9801F0C7FE254C216801F03A
:10345000BBFD20603868396801F0BEFE80463068E8
:10346000316801F0B9FE0146404601F0ADFD8046ED
:103470002868296801F0B0FE0146404601F0A4FD2D
:1034800080462068216801F0A7FE0146404601F011
:103490009BFDFFF73DF880463868414601F09CFEF1
:1034A00038603068414601F097FE30602868414638
:1034B00001F092FE28602068414601F08DFE2060F8
:1034C00021B0BDE8F08F2B9B01932A9B0093039BB7
:1034D000324629462046FFF739F8F1E790020020EE
:1034E000940200208C020020280000200AD7A33B71
:1034F0002C00002008B50B480B4B03601823C36158
:103500000023836043610222026183620722C26258
:10351000C36003624FF40072826143624360FEF74E
:10352000AFFA08BD040300200030014030B58BB075
:1035300000220192224B196B41F001011963196BB2
:1035400001F00101019101990292196B41F0010111
:103550001963196B01F00101029102990392196B31
:1035600041F001011963196B01F001010391039905
:1035700004925A6C42F480525A645B6C03F4805398
:103580000493049B202305930223069301220792B0
:103590000893052509950B4C05A92046FCF7F8FF73
:1035A00040230593099505A92046FCF7F1FF8023E8
:1035B0000593099505A92046FCF7EAFF0BB030BD3D
:1035C0000038024000000240034B1860024B1B68A9
:1035D000002BFBD1704700BF5C030020034B1B682E
:1035E0001BB1024A1368013B136070475C03002063
:1035F00008B5FCF7FDFEFFF7F1FF08BD08B5084868
:10360000084B03604FF4E133436000238360C360E1
:10361000036183610C224261C36100F0B1FC08BD0B
:10362000DC0300200048004070B588B000240194FD
:103630001A4B1A6B42F008021A631A6B02F0080266
:103640000192019A02941A6C42F480221A641B6C53
:1036500003F480230293029B4FF4807303930223AD
:103660000493059403230693072607960C4D03A99C
:103670002846FCF78DFF4FF400730393079603A9C8
:103680002846FCF785FF012221462720FCF7DCFEB7
:103690002720FCF71FFF08B070BD00BF00380240B4
:1036A000000C024000B587B0002300930A4A116B5A
:1036B00041F004011163126B02F004020092009ABF
:1036C0004FF4005201920293039301A90348FCF7BF
:1036D0005FFF07B05DF804FB0038024000080240BD
:1036E00030B595B000240094214B1A6C42F0805202
:1036F0001A641B6C03F080530093009B01941D4BD4
:103700001A6842F440421A601B6803F44043019374
:10371000019B0123079308934FF480030E93082322
:103720000F934FF4A873109302251195072312935A
:103730000D9507A8FDF7DEFD0F2302930395049472
:103740004FF4A05305934FF480530693052102A82C
:10375000FEF738F8FEF762F9074BA3FB003080094B
:10376000FCF7CEFE0420FCF7E1FE15B030BD00BF33
:103770000038024000700040D34D621008B5FCF7DD
:103780001DFEFFF7ADFFFEF78BFB08BD2DE9F041F5
:10379000F4B0FFF787FFFEF7D3FBFFF72FFFFFF72C
:1037A000A9FEFEF709FC00247294ADF8CC418DF817
:1037B000C7418DF8C64164252A46214658A801F024
:1037C000D7FE5694ADF85C412A4621463DA801F04B
:1037D000CFFE6F238DF8F3303B94CDF8EF402A46AF
:1037E000214622A801F0C4FE8DF887402A462146D2
:1037F00008A801F0BDFEAD4C4FF0FF360296012542
:1038000001950DF1F308CDF800802B463722D02129
:103810002046FDF72DFC9DF8F33023F002035BB248
:1038200043F002038DF8F33002960195CDF8008045
:103830002B463722D0212046FDF76EFB02960195DC
:103840000DF2C71700972B461B22D0212046FDF70B
:103850000FFC9DF8C73123F010035BB243F008035F
:103860008DF8C7310296019500972B461B22D02177
:103870002046FDF751FB029601950DF5E377009781
:103880002B461C22D0212046FDF7F2FB9DF8C631C5
:1038900023F010035BB243F008038DF8C6310296A3
:1038A000019500972B461C22D0212046FDF734FBC2
:1038B00002960195CDF800802B460A221821204659
:1038C000FDF7D6FB9DF8F33023F01F035BB243F006
:1038D00016038DF8F33002960195CDF800802B4643
:1038E0000A2218212046FDF717FB58E04FF0FF335E
:1038F0000293072301933BAB00930123032218217A
:103900006A48FDF7B5FB054674E008AA0021D154CA
:103910000133632BF9D9664B1C68664B1E68664BF6
:103920001F68664B186800F0F1FFCDE906013846C4
:1039300000F0ECFFCDE90401304600F0E7FFCDE9EF
:103940000201204600F0E2FFCDE900015C4A64215B
:1039500008A802F063FA4FF0FF33642208A959481F
:1039600000F0A2FB05E0032D74D0012D76D0022DCE
:1039700078D0554F0124396804FA01F1534E22469C
:1039800089B23046FCF776FF6420FFF71DFE3968E8
:1039900004FA01F1002289B23046FCF76BFF434C78
:1039A0004FF0FF3602960627019772AB0093012372
:1039B0004322D0212046FDF75BFB8046029601970B
:1039C00056AB009301233B22D0212046FDF750FB4C
:1039D00007460296012301930DF187060096022205
:1039E00018212046FDF744FB0446337813F0010FFD
:1039F0007FF47CAFB8F1000FB5D1002FB3D1002C0C
:103A0000B1D1314B1C6058A972A8FEF741FC3DA909
:103A100056A8FEF79BFC22A93BA8FEF71BFD2C4BEA
:103A20001B682C4A12682C4909682C4800682C4EE7
:103A3000366804962B4E366803962B4E36680296EF
:103A40002A4E366801962A4E36680096FFF726F809
:103A500023465EE71C4B07221A608AE71A4B0E22A8
:103A60001A6086E7184E07273760184C012280211C
:103A70002046FCF7FFFE0E23336001224FF4804105
:103A80002046FCF7F7FE4FF4FA60FFF79DFD336820
:103A900001219940002289B22046FCF7EBFE3760F5
:103AA000002280212046FCF7E5FE62E7AC02002000
:103AB0002C0000208C0200209002002094020020A4
:103AC000A0780008DC0300209802002000040240D7
:103AD000680200207C02002078020020740200208E
:103AE0008802002084020020800200207002002052
:103AF0006C02002070470268D36823F49073D3608F
:103B00000268536923F001035361202380F83A309F
:103B1000704790F83930DBB2212B2AD18368B3F596
:103B2000805F16D0036A5A1C02621A7803685A60D2
:103B3000C38C013B9BB2C384EBB90268D36823F00A
:103B40008003D3600268D36843F04003D360002051
:103B50007047036A1B880268C3F308035360036954
:103B60001BB9036A02330362E2E7036A01330362AB
:103B7000DEE7022070470020704700002DE9F8437F
:103B800004464268B44B9A4200F29C80E3681BB141
:103B9000B3F5005F40F09C80236933B1B3F5806FCB
:103BA00003D0B3F5C06F40F0998063694FF6F372AC
:103BB000134200D123B940F68811A848FEF740F916
:103BC00021680A6922F44052E36813430B612168BB
:103BD000CA6822F4164222F00C02A368206903434B
:103BE00060690343E06903431343CB6021684A697A
:103BF00022F44072A36913434B61E369B3F5004FAC
:103C000072D02368964A934200F02E8102F58062BA
:103C1000934200F02981FDF707FF00EB800000EBE5
:103C200080006568AD00B0FBF5F58E4FA7FB05354C
:103C30006D092E01FDF7F8FE00EB800000EB80001F
:103C40006568AD00B0FBF5F9FDF7EEFE00EB800016
:103C500000EB80006568AD00B0FBF5F5A7FB05350E
:103C60006D094FF0640808FB15952D013235A7FB4F
:103C700005356D0905F0F0053544FDF7D5FE00EB7F
:103C8000800000EB80006668B600B0FBF6F6FDF73A
:103C9000CBFE00EB800000EB800063689B00B0FB74
:103CA000F3F0A7FB0030400908FB10684FEA081842
:103CB00008F13208A7FB0837C7F3431723682F44DE
:103CC0009F6027E140F685116448FEF7B9F85DE78B
:103CD00040F686116148FEF7B3F85DE740F68711BC
:103CE0005E48FEF7ADF860E723685D4A93425BD01B
:103CF00002F58062934257D0FDF796FE00EB8000FC
:103D000000EB800065686D00B0FBF5F5554FA7FB33
:103D100005356D092E01FDF787FE00EB800000EBF5
:103D2000800065686D00B0FBF5F9FDF77DFE00EBE6
:103D3000800000EB800065686D00B0FBF5F5A7FB27
:103D400005356D094FF0640808FB1595ED00323517
:103D5000A7FB05356D096D0005F4F8753544FDF7D1
:103D600063FE00EB800000EB800066687600B0FB2D
:103D7000F6F6FDF759FE00EB800000EB800063686B
:103D80005B00B0FBF3F3A7FB03235B0908FB13689D
:103D90004FEAC80808F13208A7FB0837C7F34217F3
:103DA00023682F449F60B5E0FDF754FE00EB8000D0
:103DB00000EB800065686D00B0FBF5F5294FA7FBAF
:103DC00005356D092E01FDF745FE00EB800000EB87
:103DD000800065686D00B0FBF5F9FDF73BFE00EB78
:103DE000800000EB800065686D00B0FBF5F5A7FB77
:103DF00005356D094FF0640808FB1595ED00323567
:103E0000A7FB05356D096D0005F4F8753544FDF720
:103E100021FE00EB800000EB800066687600B0FBBE
:103E2000F6F6FDF717FE00EB800000EB80006368FC
:103E30005B00B0FBF3F3A7FB03235B0908FB1368EC
:103E40004FEAC80808F13208A7FB0837C7F3421742
:103E500023682F449F605DE0A037A000B878000879
:103E6000001001401F85EB51FDF7F4FD00EB8000D1
:103E700000EB80006568AD00B0FBF5F5264FA7FBB1
:103E800005356D092E01FDF7E5FD00EB800000EB27
:103E900080006568AD00B0FBF5F9FDF7DBFD00EBD8
:103EA000800000EB80006568AD00B0FBF5F5A7FB76
:103EB00005356D094FF0640808FB15952D01323565
:103EC000A7FB05356D0905F0F0053544FDF7C2FD8A
:103ED00000EB800000EB80006668B600B0FBF6F6F1
:103EE000FDF7B8FD00EB800000EB800063689B00ED
:103EF000B0FBF3F0A7FB0030400908FB10684FEA65
:103F0000081808F13208A7FB0837C7F343172368DE
:103F10002F449F60BDE8F8831F85EB512DE9F041E8
:103F200005460F4616469846069C2B681B6837EADE
:103F300003030CBF01230023B3421DD1B4F1FF3FA3
:103F4000F3D02CB1FCF75CFAA0EB0800A042ECD94E
:103F50002A68D36823F4D073D3602A68536923F0A6
:103F600001035361202385F8393085F83A30002366
:103F700085F83830032000E00020BDE8F081000023
:103F8000002800F08B8010B504468369002B55D0C3
:103F90000368434A934210D0A2F54C4293420CD09E
:103FA00002F58062934208D002F54C42934204D05D
:103FB0004FF480713B48FDF743FFA36943B1B3F56C
:103FC000807F05D0B3F5007F02D0B3F5407F2FD1BD
:103FD000A36813B1B3F5805F4ED1E36913B1B3F5B4
:103FE000004F4FD194F83930002B51D0242384F85E
:103FF00039302268D36823F40053D3602046FFF79A
:10400000BDFD2268136923F490431361226853694C
:1040100023F02A0353612268D36843F40053D3602A
:104020000020E063202384F8393084F83A3010BD52
:1040300040F201111B48FDF703FFC9E70368184A66
:104040009342C5D0A2F54C429342C1D002F58062A2
:104050009342BDD002F580629342B9D002F58062EE
:104060009342B5D002F544429342B1D040F20511DB
:104070000C48FDF7E5FEABE740F207110948FDF7F4
:10408000DFFEAAE74FF484710648FDF7D9FEA9E7E1
:1040900084F838302046FFF7C7FAA7E701207047B9
:1040A00000100140B87800082DE9F04182B01E46AA
:1040B00090F83930DBB2202B55D104460D4690469E
:1040C000002955D0002A55D090F83830012B53D014
:1040D000012380F838300023C363212380F839306E
:1040E000FCF78EF90746A4F82480A4F8268010E097
:1040F00000963B46002280212046FFF70FFF002854
:104100003CD12B882268C3F3080353602369C3B9E9
:104110000235E38C9BB2B3B1E38C013B9BB2E384E9
:10412000A368B3F5805FE3D000963B460022802170
:104130002046FFF7F3FE18BB2A7823685A60013542
:10414000E7E70135E5E700963B460022402120469F
:10415000FFF7E4FE0346A8B9202284F839200022A4
:1041600084F8382000E00223184602B0BDE8F08150
:104170000123F9E70123F7E70223F5E70323F3E738
:104180000323F1E70323EFE790F83930DBB2202B6C
:1041900016D1B9B1C2B190F83830012B16D00162F6
:1041A0008284C2840023C363212280F8392080F8EE
:1041B00038300168CA6842F08002CA601846704709
:1041C000022070470120704701207047022070478D
:1041D00090F83A30DBB2202B1BD1E1B1EAB190F874
:1041E0003830012B1BD081628285C2850023C363D6
:1041F000222280F83A2080F8383001684A6942F07B
:1042000001024A610168CA6842F49072CA601846A5
:10421000704702207047012070470120704702203C
:10422000704708B50168CB6823F04003CB602023BA
:1042300080F83930FDF796FF002008BD08B590F8EA
:104240003A30DBB2222B40D18368B3F5805F0ED0C9
:10425000036903BB03685A68836A591C81621A7038
:10426000C38D013B9BB2C385F3B100202EE0826A6F
:10427000036943B903685B68C3F308031380836A67
:1042800002338362ECE703685B68DBB21380836A06
:1042900001338362E4E703685B68826A511C8162D0
:1042A00003F07F031370DBE70268D36823F4907395
:1042B000D3600268536923F001035361202380F81F
:1042C0003A30FDF749FF002000E0022008BD7047AA
:1042D00010B5044602681368D168526913F00F00E4
:1042E00005D113F0200F02D011F0200F53D1002878
:1042F00067D012F0010202D111F4907F61D013F067
:10430000010F06D011F4807F03D0E06B40F0010074
:10431000E06313F0040F04D01AB1E06B40F0020028
:10432000E06313F0020F04D01AB1E06B40F0040018
:10433000E06313F0080F04D01AB1E26B42F00802F8
:10434000E263E26B002A48D013F0200F02D011F094
:10435000200F24D123685B6903F04003E26B12F065
:10436000080F00D13BB32046FFF7C5FB23685A690D
:1043700012F0400F1BD05A6922F040025A61636B61
:104380008BB11A4A1A65606BFCF7EEF828B3606BC4
:10439000036D984721E02046FFF750FF1DE02046BF
:1043A000FFF74CFFD6E72046FFF791FF15E02046C8
:1043B000FFF78DFF11E02046FFF789FF0023E3633D
:1043C0000BE013F0800F02D011F0800F06D113F034
:1043D000400F02D011F0400F04D110BD2046FFF76E
:1043E00098FBFAE72046FFF71CFFF6E7F1430008C9
:1043F00008B5806B0023C385C384FFF768FF08BD41
:104400002DE9F04F8BB004460D4600F057F8294BCC
:1044100093F900A0BAF1FF3F06460F4612D022469C
:104420002B462046294600F063FD834650B94FF0E5
:1044300000084FF0000942464B462046294600F04E
:104440002FFD20B9304639460BB0BDE8F08F012270
:10445000194BCDF820B00092CDE90445CDE90245D5
:104460000193BAF1000F17D042464B4640464946E9
:1044700000F0CEFBBAF1020FCDE906010ED101F03A
:1044800071F821230360089B73B9DDE906673046A4
:1044900039460BB0BDE8F08FCDE90689684600F0DB
:1044A000CFF80028EFD1EAE701F05CF8089B036041
:1044B000EBE700BF30000020D47800085F4A8A4351
:1044C0002DE9F0410D46074600F0948000290B4687
:1044D0000446064654DD0F1500F0A780C3F313030E
:1044E000A7F2FF3743F48013F20FF80702EB430300
:1044F0004FEA460503D5ED0F05EB4303B500002653
:104500007F10B44616224FF400110CEB01009842C4
:104510004FEAD5744FEA450503DC1B1A00EB010C8A
:104520000E44013A04EB43034FEA5101EDD110462A
:10453000964620244FF0004209E052D05B00013C37
:1045400003EBD5734FEA52024FEA450537D0634576
:1045500002EB0E01F1DD002901EB020E0ADBE04661
:10456000A3EB0C03A94288BF03F1FF336D1A10447B
:10457000C446E3E7BEF1000FF1DB0CF10108EFE701
:1045800021F00042024329D0002945D10146CA0A40
:10459000153B4905002AFAD012F4801001D048E0FA
:1045A00030465200D40200F10106F9D5C6F12004CC
:1045B00001FA06F6E1401F1A41EA02038EE72B4397
:1045C00024D14408731003F17F53F20703F500135D
:1045D00048BF44F0004403EB075127463846BDE886
:1045E000F081A942AAD8002901EB020EC2DB98464D
:1045F0000023BBE702460B4600F0E0F93A462B46A3
:1046000000F026F807463846BDE8F081411C16BF89
:10461000421C01365408D5E7024600F017F802465E
:104620000B4600F0F5FA0746D8E71A4621463B4606
:10463000B2E70E4620244FF0FF30BBE70000F07FCA
:104640000020704781F0004102E000BF83F000438A
:1046500030B54FEA41044FEA430594EA050F08BF1D
:1046600090EA020F1FBF54EA000C55EA020C7FEAE1
:10467000645C7FEA655C00F0E2804FEA5454D4EB5E
:104680005555B8BF6D420CDD2C4480EA020281EA28
:10469000030382EA000083EA010180EA020281EA60
:1046A0000303362D88BF30BD11F0004F4FEA0131B2
:1046B0004FF4801C4CEA113102D0404261EB4101C1
:1046C00013F0004F4FEA03334CEA133302D0524247
:1046D00063EB430394EA050F00F0A780A4F1010403
:1046E000D5F1200E0DDB02FA0EFC22FA05F280183D
:1046F00041F1000103FA0EF2801843FA05F3594123
:104700000EE0A5F120050EF1200E012A03FA0EFCA1
:1047100028BF4CF0020C43FA05F3C01851EBE371CB
:1047200001F0004507D54FF0000EDCF1000C7EEBE8
:1047300000006EEB0101B1F5801F1BD3B1F5001F26
:104740000CD349085FEA30004FEA3C0C04F1010445
:104750004FEA445212F5800F80F09A80BCF1004F6E
:1047600008BF5FEA500C50F1000041EB045141EAF0
:10477000050130BD5FEA4C0C404141EB010111F4F1
:10478000801FA4F10104E9D191F0000F04BF01469C
:104790000020B1FA81F308BF2033A3F10B03B3F17A
:1047A00020020CDA0C3208DD02F1140CC2F10C020A
:1047B00001FA0CF021FA02F10CE002F11402D8BF68
:1047C000C2F1200C01FA02F120FA0CFCDCBF41EA34
:1047D0000C019040E41AA2BF01EB0451294330BD03
:1047E0006FEA04041F3C1CDA0C340EDC04F11404E0
:1047F000C4F1200220FA04F001FA02F340EA0300B7
:1048000021FA04F345EA030130BDC4F10C04C4F1FC
:10481000200220FA02F001FA04F340EA03002946DC
:1048200030BD21FA04F0294630BD94F0000F83F426
:10483000801306BF81F480110134013D4EE77FEA09
:10484000645C18BF7FEA655C29D094EA050F08BF55
:1048500090EA020F05D054EA000C04BF1946104636
:1048600030BD91EA030F1EBF0021002030BD5FEA7A
:10487000545C05D14000494128BF41F0004130BDA2
:1048800014F580043CBF01F5801130BD01F00045F6
:1048900045F0FE4141F470014FF0000030BD7FEA69
:1048A000645C1ABF194610467FEA655C1CBF0B4664
:1048B000024650EA013406BF52EA033591EA030F7B
:1048C00041F4002130BD00BF90F0000F04BF002173
:1048D000704730B54FF4806404F132044FF00005A6
:1048E0004FF0000150E700BF90F0000F04BF00211F
:1048F000704730B54FF4806404F1320410F0004585
:1049000048BF40424FF000013EE700BF42004FEA7F
:10491000E2014FEA31014FEA02701FBF12F07F43FC
:1049200093F07F4F81F06051704732F07F4208BFB3
:10493000704793F07F4F04BF41F40021704730B5BA
:104940004FF4607401F0004521F000411CE700BF06
:1049500050EA010208BF704730B54FF000050AE089
:1049600050EA010208BF704730B511F0004502D58A
:10497000404261EB41014FF4806404F132045FEA8C
:10498000915C3FF4D8AE4FF003025FEADC0C18BF35
:1049900003325FEADC0C18BF033202EBDC02C2F127
:1049A000200300FA03FC20FA02F001FA03FE40EAB9
:1049B0000E0021FA02F11444BDE600BF70B54FF0BD
:1049C000FF0C4CF4E06C1CEA11541DBF1CEA13559B
:1049D00094EA0C0F95EA0C0F00F0DEF82C4481EA03
:1049E000030621EA4C5123EA4C5350EA013518BF23
:1049F00052EA033541F4801143F4801338D0A0FB10
:104A000002CE4FF00005E1FB02E506F00042E0FBBC
:104A100003E54FF00006E1FB03569CF0000F18BFC2
:104A20004EF0010EA4F1FF04B6F5007F64F540746A
:104A300004D25FEA4E0E6D4146EB060642EAC621FD
:104A400041EA55514FEAC52040EA5E504FEACE2E6A
:104A5000B4F1FD0C88BFBCF5E06F1ED8BEF1004F6D
:104A600008BF5FEA500E50F1000041EB045170BDE9
:104A700006F0004646EA010140EA020081EA03012D
:104A8000B4EB5C04C2BFD4EB0C0541EA045170BD29
:104A900041F480114FF0000E013C00F3AB8014F1A3
:104AA000360FDEBF002001F0004170BDC4F10004EC
:104AB000203C35DA0C341BDC04F11404C4F120056D
:104AC00000FA05F320FA04F001FA05F240EA0200C8
:104AD00001F0004221F0004110EBD37021FA04F6FE
:104AE00042EB06015EEA430E08BF20EAD37070BDB8
:104AF000C4F10C04C4F1200500FA04F320FA05F017
:104B000001FA04F240EA020001F0004110EBD37018
:104B100041F100015EEA430E08BF20EAD37070BD88
:104B2000C4F1200500FA05F24EEA020E20FA04F361
:104B300001FA05F243EA020321FA04F001F0004110
:104B400021FA04F220EA020000EBD3705EEA430E81
:104B500008BF20EAD37070BD94F0000F0FD101F0B0
:104B60000046400041EB010111F4801F08BF013CE9
:104B7000F7D041EA060195F0000F18BF704703F027
:104B80000046520043EB030313F4801F08BF013DAE
:104B9000F7D043EA0603704794EA0C0F0CEA13556A
:104BA00018BF95EA0C0F0CD050EA410618BF52EA24
:104BB0004306D1D181EA030101F000414FF000002A
:104BC00070BD50EA410606BF1046194652EA430638
:104BD00019D094EA0C0F02D150EA013613D195EAAC
:104BE0000C0F05D152EA03361CBF104619460AD1F4
:104BF00081EA030101F0004141F0FE4141F47001FE
:104C00004FF0000070BD41F0FE4141F4780170BDED
:104C100070B54FF0FF0C4CF4E06C1CEA11541DBF52
:104C20001CEA135594EA0C0F95EA0C0F00F0A7F854
:104C3000A4EB050481EA030E52EA03354FEA013181
:104C400000F088804FEA03334FF0805545EA131394
:104C500043EA12634FEA022245EA111545EA10655C
:104C60004FEA00260EF000419D4208BF964244F1F3
:104C7000FD0404F5407402D25B084FEA3202B61A12
:104C800065EB03055B084FEA32024FF480104FF4E6
:104C9000002CB6EB020E75EB030E22BFB61A75465A
:104CA00040EA0C005B084FEA3202B6EB020E75EBED
:104CB000030E22BFB61A754640EA5C005B084FEA55
:104CC0003202B6EB020E75EB030E22BFB61A754622
:104CD00040EA9C005B084FEA3202B6EB020E75EB2D
:104CE000030E22BFB61A754640EADC0055EA060EEE
:104CF00018D04FEA051545EA16754FEA06164FEA31
:104D0000C30343EA52734FEAC2025FEA1C1CC0D1DC
:104D100011F4801F0BD141EA00014FF000004FF069
:104D2000004CB6E711F4801F04BF01430020B4F12A
:104D3000FD0C88BFBCF5E06F3FF6AFAEB5EB030CE2
:104D400004BFB6EB020C5FEA500C50F1000041EBDF
:104D5000045170BD0EF0004E4EEA113114EB5C04AC
:104D6000C2BFD4EB0C0541EA045170BD41F480117F
:104D70004FF0000E013C90E645EA060E8DE60CEA87
:104D8000135594EA0C0F08BF95EA0C0F3FF43BAFA4
:104D900094EA0C0F0AD150EA01347FF434AF95EA5B
:104DA0000C0F7FF425AF104619462CE795EA0C0F3F
:104DB00006D152EA03353FF4FDAE1046194622E70C
:104DC00050EA410618BF52EA43067FF4C5AE50EAE6
:104DD00041047FF40DAF52EA43057FF4EBAE12E7D6
:104DE0004FF0FF3C06E000BF4FF0010C02E000BFB7
:104DF0004FF0010C4DF804CD4FEA410C7FEA6C5C9A
:104E00004FEA430C18BF7FEA6C5C1BD001B050EA3C
:104E1000410C0CBF52EA430C91EA030F02BF90EA27
:104E2000020F0020704710F1000F91EA030F58BFE6
:104E3000994208BF90422CBFD8176FEAE37040F048
:104E4000010070474FEA410C7FEA6C5C02D150EAE6
:104E5000013C07D14FEA430C7FEA6C5CD6D152EAA1
:104E6000033CD3D05DF8040B704700BF8446104666
:104E700062468C461946634600E000BF01B5FFF765
:104E8000B7FF002848BF10F1000F01BD4DF808ED35
:104E9000FFF7F4FF0CBF012000205DF808FB00BF06
:104EA0004DF808EDFFF7EAFF34BF012000205DF860
:104EB00008FB00BF4DF808EDFFF7E0FF94BF0120AD
:104EC00000205DF808FB00BF4DF808EDFFF7CEFFAE
:104ED00094BF012000205DF808FB00BF4DF808EDED
:104EE000FFF7C4FF34BF012000205DF808FB00BFBE
:104EF0004FEA410C7FEA6C5C02D150EA013C0AD1D6
:104F00004FEA430C7FEA6C5C02D152EA033C02D1C7
:104F10004FF0000070474FF0010070474FEA410228
:104F2000B2F1E04324BFB3F5001CDCF1FE5C0DD907
:104F300001F0004C4FEAC0024CEA5070B2F1004F51
:104F400040EB830008BF20F00100704711F0804F54
:104F500021D113F13872BCBF01F00040704741F419
:104F600080114FEA5252C2F11802C2F1200C10FA1D
:104F70000CF320FA02F018BF40F001004FEAC12301
:104F80004FEAD32303FA0CFC40EA0C0023FA02F3A5
:104F90004FEA4303CCE77FEA625307D150EA01337B
:104FA0001EBF4FF0FE4040F44000704701F000404B
:104FB00040F0FE4040F40000704700BF80F0004029
:104FC00002E000BF81F0004142001FBF5FEA4103E1
:104FD00092EA030F7FEA226C7FEA236C6AD04FEAE1
:104FE0001262D2EB1363C1BFD21841404840414026
:104FF000B8BF5B42192B88BF704710F0004F40F4D8
:10500000000020F07F4018BF404211F0004F41F4F3
:10501000000121F07F4118BF494292EA030F3FD0BF
:10502000A2F1010241FA03FC10EB0C00C3F12003D2
:1050300001FA03F100F0004302D5494260EB400061
:10504000B0F5000F13D3B0F1807F06D340084FEACC
:10505000310102F10102FE2A51D2B1F1004F40EBC1
:10506000C25008BF20F0010040EA03007047490029
:1050700040EB000010F4000FA2F10102EDD1B0FAF4
:1050800080FCACF1080CB2EB0C0200FA0CF0AABFE9
:1050900000EBC25052421843BCBFD0401843704787
:1050A00092F0000F81F4000106BF80F4000001328D
:1050B000013BB5E74FEA41037FEA226C18BF7FEA64
:1050C000236C21D092EA030F04D092F0000F08BFA6
:1050D0000846704790EA010F1CBF0020704712F08D
:1050E0007F4F04D1400028BF40F00040704712F1CC
:1050F00000723CBF00F50000704700F0004343F031
:10510000FE4040F4000070477FEA226216BF084666
:105110007FEA23630146420206BF5FEA412390EA29
:10512000010F40F4800070474FF0000304E000BF1F
:1051300010F0004348BF40425FEA000C08BF7047D0
:1051400043F0964301464FF000001CE050EA010294
:1051500008BF70474FF000030AE000BF50EA0102A9
:1051600008BF704711F0004302D5404261EB410196
:105170005FEA010C02BF84460146002043F0B643BB
:1051800008BFA3F18053A3F50003BCFA8CF2083AE0
:10519000A3EBC25310DB01FA02FC634400FA02FCE9
:1051A000C2F12002BCF1004F20FA02F243EB0200F0
:1051B00008BF20F00100704702F1200201FA02FC52
:1051C000C2F1200250EA4C0021FA02F243EB020045
:1051D00008BF20EADC7070474FF0FF0C1CEAD05289
:1051E0001EBF1CEAD15392EA0C0F93EA0C0F6FD04A
:1051F0001A4480EA010C400218BF5FEA41211ED028
:105200004FF0006343EA501043EA5111A0FB013113
:105210000CF00040B1F5000F3EBF490041EAD371E8
:105220005B0040EA010062F17F02FD2A1DD8B3F164
:10523000004F40EBC25008BF20F00100704790F0D3
:10524000000F0CF0004C08BF49024CEA502040EA25
:1052500051207F3AC2BFD2F1FF0340EAC2507047EB
:1052600040F400004FF00003013A5DDC12F1190F29
:10527000DCBF00F000407047C2F10002410021FA9B
:1052800002F1C2F1200200FA02FC5FEA310040F1B3
:10529000000053EA4C0308BF20EADC70704792F02C
:1052A000000F00F0004C02BF400010F4000F013A64
:1052B000F9D040EA0C0093F0000F01F0004C02BF5F
:1052C000490011F4000F013BF9D041EA0C018FE7CE
:1052D0000CEAD15392EA0C0F18BF93EA0C0F0AD0D4
:1052E00030F0004C18BF31F0004CD8D180EA0100FA
:1052F00000F00040704790F0000F17BF90F0004F93
:10530000084691F0000F91F0004F14D092EA0C0F74
:1053100001D142020FD193EA0C0F03D14B0218BF07
:10532000084608D180EA010000F0004040F0FE404D
:1053300040F40000704740F0FE4040F440007047E9
:105340004FF0FF0C1CEAD0521EBF1CEAD15392EA68
:105350000C0F93EA0C0F69D0A2EB030280EA010C58
:1053600049024FEA402037D04FF0805343EA1111F1
:1053700043EA10130CF000408B4238BF5B0042F14F
:105380007D024FF4000C8B4224BF5B1A40EA0C00F4
:10539000B3EB510F24BFA3EB510340EA5C00B3EB26
:1053A000910F24BFA3EB910340EA9C00B3EBD10F14
:1053B00024BFA3EBD10340EADC001B0118BF5FEA66
:1053C0001C1CE0D1FD2A3FF650AF8B4240EBC2508F
:1053D00008BF20F0010070470CF0004C4CEA502050
:1053E0007F32C2BFD2F1FF0340EAC250704740F49F
:1053F00000004FF00003013A37E792F0000F00F091
:10540000004C02BF400010F4000F013AF9D040EA0E
:105410000C0093F0000F01F0004C02BF490011F4A2
:10542000000F013BF9D041EA0C0195E70CEAD1539A
:1054300092EA0C0F08D142027FF47DAF93EA0C0F81
:105440007FF470AF084676E793EA0C0F04D14B0265
:105450003FF44CAF08466EE730F0004C18BF31F017
:10546000004CCAD130F000427FF45CAF31F0004311
:105470007FF43CAF5FE700BF4FF0FF3C06E000BFAA
:105480004FF0010C02E000BF4FF0010C4DF804CDCD
:105490004FEA40024FEA41037FEA226C18BF7FEADD
:1054A000236C11D001B052EA530C18BF90EA010FDF
:1054B00058BFB2EB030088BFC81738BF6FEAE1706E
:1054C00018BF40F0010070477FEA226C02D15FEA0A
:1054D000402C05D17FEA236CE4D15FEA412CE1D076
:1054E0005DF8040B704700BF844608466146FFE73D
:1054F0000FB5FFF7C9FF002848BF10F1000F0FBD1F
:105500004DF808EDFFF7F4FF0CBF012000205DF817
:1055100008FB00BF4DF808EDFFF7EAFF34BF01209C
:1055200000205DF808FB00BF4DF808EDFFF7E0FF35
:1055300094BF012000205DF808FB00BF4DF808ED86
:10554000FFF7D2FF94BF012000205DF808FB00BFE9
:105550004DF808EDFFF7C8FF34BF012000205DF8CB
:1055600008FB00BF014B1868704700BF34000020E3
:1055700002440346934200D1704703F8011BF9E748
:105580002DE9F04788B0002B149F109DDDE9121A19
:105590001E4627F02007BBBF03F100431E46002331
:1055A0002D23462F14460B7004D0452F00D1013512
:1055B000022300E0032307AA049206AACDE902A26F
:1055C000CDE900352246334600F0F2FC472F8046F5
:1055D00002D1119BDB0726D5462F08EB050911D117
:1055E00098F80030302B0AD10022002320463146A3
:1055F000FFF74CFC18B9C5F10105CAF80050DAF8FC
:10560000003099440022002320463146FFF73EFC3B
:1056100038B93022079B4B4505D2591C07911A70A7
:10562000F8E7CDF81C90079B159AA3EB08034046BA
:10563000136008B0BDE8F087F7B500290446BABF8B
:1056400049422D232B23092904F8022B437020DD26
:105650000DF107031F460A2691FBF6F506FB15110F
:105660003031092D03F8011C03F1FF32294609DC12
:105670003031023B02F8011CBB42224604D3101A0F
:1056800003B0F0BD1346E7E713F8012B04F8012B34
:10569000F2E7302319448370021DC170EFE7000068
:1056A0002DE9F04F91B00C461A9F93461E460546D1
:1056B00001F038FA03680993184600F0E3FB002371
:1056C0000E933B680A90073323F0070303F10802A7
:1056D00094F81880D4F800A03A60D3E90023C4E914
:1056E0001223D4E9127929F000430B934FF0FF32D3
:1056F000A64B0B993846FFF7FBFB68BB4FF0FF3218
:10570000A24B0B993846FFF7D5FB28BB002200239C
:1057100038464946FFF7C4FB10B12D2384F84330C7
:105720009B4F9C4BB8F1470F98BF1F460323236143
:105730002AF0040323604FF0000900965B460FAA8D
:105740002146284600F0E2F9013040F090804FF009
:10575000FF3011B0BDE8F08F3A464B463846494617
:10576000FFF7C6FB10B18C4F8C4BDBE76368591C0D
:105770004AF480620EA90DA840D1062363600DF1A2
:105780003303CDE901234FF0000C63682260CDE9BB
:10579000030800933A464B46CDE9051C2846FFF71F
:1057A000EFFE08F0DF03472B074609D10D9BD81CFD
:1057B00002DB6268934247DDA8F102085FFA88F8CD
:1057C000B8F1650F0D9924D80139424604F1500013
:1057D0000D91FFF731FF0E9A1318012A81462361BC
:1057E00002DC2268D10701D5013323619DF83330F3
:1057F000002BA2D02D2384F843309EE7B8F1670F29
:1058000000F06E81B8F1470FB9D1002BB7D1012359
:10581000B4E7B8F1660F19D1002963680CDD216186
:1058200013B92268D20702D501330B4423610D9BC3
:10583000A3654FF00009D9E713B92268D00701D555
:105840000233F3E70123F1E74FF06708DDE90D329A
:10585000934205DB22682361D107E8D50133E5E7F0
:10586000002BD4BFC3F1020301231344DEE72368F6
:105870005A0507D423693A4659462846B0470130AD
:1058800029D164E7B8F1650F40F2D78000220023E8
:10589000D4E91201FFF7FAFA88B30123404A5946C6
:1058A0002846B04701303FF452AFDDE90D239A425C
:1058B00002DB2368D8070ED5DDE9092359462846BF
:1058C000B04701303FF443AF002704F11A080E9BA4
:1058D000013BBB4209DC23689F0700F1FD80E068C3
:1058E0000F9B9842B8BF184633E7012342465946FA
:1058F0002846B04701303FF42AAF0137E7E70D9B58
:10590000002B2BDC0123264A59462846B04701309C
:105910003FF41DAF0D9B23B90E9B13B92368D90724
:10592000D9D5DDE9092359462846B04701303FF46F
:105930000EAF4FF0000804F11A090D9B5B4243457E
:1059400001DC0E9B97E701234A4659462846B0479B
:1059500001303FF4FCAE08F10108EEE70E9AA36DAA
:105960009A42A8BF1A46002A904607DD13465946B8
:105970003A462846B04701303FF4E9AE04F11A0335
:105980004FF0000A28EAE8780B9315E0FFFFEF7F5D
:10599000E0780008DC780008E8780008E47800087F
:1059A000EC78000801230B9A59462846B04701308D
:1059B0003FF4CDAE0AF1010AD4F85890A9EB0803E0
:1059C0005345EFDCDDE90D239A424F4414DB236895
:1059D000DA0711D40E9B0D99A3EB0902A3EB010981
:1059E0009145A8BF9146B9F1000F0DDC002729EAC7
:1059F000E97904F11A0818E0DDE909235946284637
:105A0000B0470130E6D1A2E64B463A465946284611
:105A1000B0470130EAD19AE601234246594628466A
:105A2000B04701303FF493AE0137DDE90D239B1AF7
:105A3000A3EB0903BB42EFDC4DE70E9A012A01DC20
:105A4000DB0738D501233A4659462846B04701308E
:105A50003FF47DAEDDE9092359462846B0470130C1
:105A600007F101073FF473AE0E9B002203F1FF38EC
:105A7000D4E912010023FFF709FAC0B943463A46B8
:105A800059462846B04701300DD160E60123424611
:105A900059462846B04701303FF459AE01370E9BB6
:105AA000013BBB42F2DC4B4604F15002E4E6002726
:105AB00004F11A08F3E70123E1E7012342465946BE
:105AC0002846B04701303FF442AE0137E3680F9AF1
