:020000040800F2
:1000000000000220F5020008FB020008FF020008C1
:10001000170300081B03000833030008000000005A
:100020000000000000000000000000004B0300087A
:100030004F03000800000000530300086118000887
:1000400065030008650300086503000865030008F0
:1000500065030008650300086503000865030008E0
:1000600065030008650300086503000865030008D0
:1000700065030008650300086503000865030008C0
:1000800065030008650300086503000865030008B0
:1000900065030008650300086503000865030008A0
:1000A0006503000865030008650300086503000890
:1000B0006503000865030008650300086503000880
:1000C0006503000865030008650300086503000870
:1000D0006503000865030008650300086503000860
:1000E0006503000865030008650300086503000850
:1000F0006503000865030008650300086503000840
:10010000650300086503000865030008650300082F
:10011000650300086503000865030008650300081F
:10012000650300086503000865030008650300080F
:1001300065030008000000000000000065030008DF
:1001400065030008650300086503000865030008EF
:1001500065030008650300086503000865030008DF
:1001600065030008650300086503000865030008CF
:10017000650300086503000865030008000000002F
:1001800000000000650300080000000000000000FF
:10019000650300080000000000000000650300087F
:1001A00000000000000000000000000065030008DF
:1001B000650300086503000865030008650300087F
:1001C0006503000800B583B001F0F6F9384B394AF1
:1001D0001360394A1360394900E02146384B99428F
:1001E0000BD20A684B6801F10C0488689842F4D974
:1001F0001168196004330432F8E72E4B1A68314B4A
:100200009A4200D0FEE72C4B1A682F4B9A42F9D144
:10021000274B2E4A13602E4A13602E4B05E0002018
:10022000106004329342FAD80B462B4A934204D210
:10023000194651F8082B5B68F4E7244B1B6813B987
:10024000234B1B6803B1FEE701F0D2FB694601A80E
:1002500001F0A6F9214C224BE41AA4100025AC426F
:1002600014DC204C204BE41AA4100025AC4213DC13
:100270000099019801F0C4FB05461C4C1C4BE41A84
:10028000A410002C0EDC284601F084F9144B53F81E
:10029000253098470135E2E7134B53F8253098474E
:1002A0000135E3E7013C124B53F824309847E8E767
:1002B000BABADECA0000002010000020680300085F
:1002C00080030008785634123254769814000020C7
:1002D000000100208003000890030008900300083C
:1002E00090030008900300089003000890030008A2
:1002F0009003000808B5FFF765FF00BEFEE71EF09B
:10030000040F0CBFEFF30880EFF309807146124A27
:10031000104700BEFEE700BEFEE71EF0040F0CBF54
:10032000EFF30880EFF3098071460C4A104700BED6
:10033000FEE71EF0040F0CBFEFF30880EFF3098017
:100340007146074A104700BEFEE700BEFEE700BE4A
:10035000FEE700BEFEE77047130300082F03000806
:080360004703000800BEFEE7A0
:10036800582200080000002014000020582200082D
:1003780000000010000000101400002004010020FC
:0803880000000010000000104D
:1003900010B50446074B1868074BA3FB00308009D3
:1003A00000F098F8002221464FF0FF3000F04CF8A2
:1003B000002010BD0C000020D34D621008B50B4B7F
:1003C0001A6842F400721A601A6842F480621A6075
:1003D0001A6842F480721A60032000F017F80F20A8
:1003E000FFF7D6FF01F098FB002008BD003C02405B
:1003F000024A136801331360704700BF20000020D9
:10040000014B1868704700BF2000002010B504465B
:10041000C31E042B0FD80A4AD36823F4E0631B04DD
:100420001B0C240204F4E064234343F0BF6343F451
:100430000033D36010BDA421024801F0B9F8EAE707
:1004400000ED00E03821000870B505460C46164660
:100450000F2A25D80F2C28D81B4BDB68C3F30223A7
:10046000C3F10702042A28BF0422191D062921D935
:10047000033B4FF0FF3101FA02F224EA02049C40F0
:1004800001FA03F326EA03063443002D14DB2401AA
:10049000E4B205F1604505F5614585F8004370BD9E
:1004A000BC210A4801F084F8D4E7BD21074801F0D7
:1004B0007FF8D1E70023DCE705F00F052401E4B263
:1004C000034B5C55EBE700BF00ED00E0382100086E
:1004D00014ED00E00138B0F1807F0AD2064B58607D
:1004E000064AF02182F823100020986007221A6043
:1004F00070470120704700BF10E000E000ED00E011
:1005000010B50446042800D038B9042C0BD0094A91
:10051000136823F00403136010BD40F2B3110648C2
:1005200001F046F8F1E7034A136843F0040313604F
:10053000F2E700BF10E000E0382100082DE9F047A5
:1005400082B080460E46B04B98421FD003F58063C0
:1005500098421BD003F58063984217D003F580635F
:10056000984213D003F5806398420FD003F580635F
:1005700098420BD003F58063984207D003F580635F
:10058000984203D0C521A14801F012F8338833B353
:100590007368012B1ED9112B1CD0022B1AD0122BE1
:1005A00018D09B4A934215D002F58012934211D085
:1005B00002F5801293420DD0A2F5F812934209D0B1
:1005C00002F58012934205D002F58012934201D0C9
:1005D000032B09D1B368022B0BD800244AE0C621B3
:1005E0008A4800F0E5FFD3E7C721884800F0E0FF24
:1005F000F0E7C821854800F0DBFFEEE7EC218348F7
:1006000000F0D6FF96E0062300E000238B40034372
:100610000232804941F822307F4B1A68FB4303EADB
:100620000201706810F4803F01D047EA02017A4A63
:100630001160526803EA0201706810F4003F01D0B3
:1006400047EA0201744A5160926803EA0201706845
:1006500010F4801F01D047EA02016F4A9160D2680E
:100660001340716811F4001F01D047EA02036A4A7F
:10067000D36001340F2C00F2C3800125A5403768F8
:100680002F40BD42F5D17368022B01D0122B31D11E
:100690003369FBB1092B1DD0012B1BD0022B19D0C4
:1006A000032B17D0042B15D0052B13D0062B11D0FC
:1006B000072B0FD0082B0DD00A2B0BD00B2B09D0FA
:1006C0000C2B07D00D2B05D00F2B03D0D9214F4871
:1006D00000F06EFFE208083258F8220004F0070329
:1006E00099000F238B4020EA030033698B400343BA
:1006F00048F82230D8F800204FEA440A4FF00309A6
:1007000009FA0AF96FEA090909EA0202736803F0B3
:10071000030303FA0AF31343C8F8003073685A1E40
:10072000012A03D9112B01D0122B18D1F368032B06
:100730003FF664AFD8F8082009EA0202F36803FA2A
:100740000AF31343C8F80830D8F8042022EA050257
:100750007368C3F30015A5401543C8F80450D8F8D2
:100760000C3009EA0309B36803FA0AF343EA090300
:10077000C8F80C30736813F0805F3FF47AAF002341
:100780000193264B5A6C42F480425A645B6C03F42A
:1007900080430193019BA208911C1E4B53F821003A
:1007A00004F0030399000F238B4020EA0300164B4B
:1007B00098453FF42AAF03F58063984516D003F5BA
:1007C0008063984514D003F58063984512D003F5F3
:1007D0008063984510D003F5806398450ED003F5EB
:1007E000806398453FF40FAF08230FE701230DE71F
:1007F00002230BE7032309E7042307E7052305E7A3
:1008000002B0BDE8F08700BF000002406C21000884
:100810000000111000380140003C01400038024047
:1008200070B5064615460C4629B1012D09D875B993
:100830002404B46170BD40F2B111064800F0B8FE66
:10084000F3E74FF4D971034800F0B2FEEFE7B4616B
:10085000F0E700BF6C21000830B583B004460368A0
:100860000F2B29D8236813F0010F3DD06368012BAB
:1008700001D9052B25D1A34B9B6803F00C03042B56
:1008800029D0A04B9B6803F00C03082B1ED02279C3
:100890009D4B1A706368002B50D0FFF7B1FD0546E1
:1008A000984B1B6813F4003F1ED1FFF7A9FD401BB6
:1008B0006428F5D90320E3E1F521944800F078FE9F
:1008C000D0E7FA21914800F073FED4E78D4B5B68C6
:1008D00013F4800FDBD08B4B1B6813F4003F03D065
:1008E0006368002B00F0C981236813F0020F5DD00C
:1008F000E368012B31D823691F2B34D8814B9B68C7
:1009000013F00C0F3AD07F4B9B6803F00C03082BBD
:100910002FD0E368002B74D07D4B01221A60FFF7C3
:100920006FFD0546774B1B6813F0020F5AD1FFF796
:1009300067FD401B0228F5D90320A1E1FFF760FD08
:100940000546704B1B6813F4003FCDD0FFF758FDF0
:10095000401B6428F5D9032092E14FF496716B484F
:1009600000F026FEC7E740F22D11684800F020FE97
:10097000C4E7644B5B6813F4800FCAD1614B1B68FA
:1009800013F0020F04D0E368012B01D0012077E1BE
:100990005C48036823F0F8032169F82292FAA2F276
:1009A000B2FA82F201FA02F213430360236813F0F1
:1009B000080F50D06369012B35D86369002B38D0FC
:1009C000544B01221A60FFF71BFD05464D4B5B6F30
:1009D00013F0020F3FD1FFF713FD401B0228F5D99A
:1009E00003204DE14748036823F0F8032169F8220A
:1009F00092FAA2F2B2FA82F201FA02F2134303600F
:100A0000D4E7434B00221A60FFF7FAFC05463D4B42
:100A10001B6813F0020FC9D0FFF7F2FC401B02283D
:100A2000F5D903202CE140F26D11384800F0C0FDEB
:100A3000C3E7384B00221A60FFF7E2FC0546314B52
:100A40005B6F13F0020F06D0FFF7DAFC401B0228A1
:100A5000F5D9032014E1236813F0040F60D0A368D4
:100A6000012B01D9052B1FD100230193254B1A6CB3
:100A700042F080521A641B6C03F080530193019B77
:100A8000254A136843F480731360FFF7B9FC0546E9
:100A9000214B1B6813F4807F0CD1FFF7B1FC401B86
:100AA0000228F5D90320EBE040F29711174800F037
:100AB0007FFDD9E7227A194B1A70A36883B1FFF73B
:100AC0009FFC05460F4B1B6F13F0020F28D1FFF759
:100AD00097FC401B41F288339842F3D90320CFE0C2
:100AE000FFF78EFC0546074B1B6F13F0020F17D064
:100AF000FFF786FC401B41F288339842F3D903206C
:100B0000BEE000BF0038024002380240AC210008BD
:100B100000004742800E474200700040703802409B
:100B2000A369022B39D8A369002B00F0A880564A8C
:100B3000926802F00C02082A00F0A480022B40F018
:100B40008880E36913B1B3F5800F2CD1236A3F2B62
:100B50002FD8636A323BB3F5BF7F30D8A36A022B2C
:100B600005D0042B03D0062B01D0082B2DD1E36A2E
:100B7000043B0B2B2FD8454B00221A60FFF740FC9B
:100B80000546414B1B6813F0007F2AD0FFF738FC65
:100B9000401B0228F5D9032072E04FF4E6713C486F
:100BA00000F006FDBFE740F2D511394800F000FD26
:100BB000CCE74FF4EB71364800F0FAFCC9E740F29D
:100BC000D711334800F0F4FCC8E74FF4EC7130481B
:100BD00000F0EEFCCBE740F2D9112D4800F0E8FC24
:100BE000C9E7E369226A1343616A47F6C07292FA61
:100BF000A2F2B2FA82F201FA02F21343A26A520896
:100C0000013A4FF4403191FAA1F1B1FA81F18A40F1
:100C10001343E16A4FF0706292FAA2F2B2FA82F2E2
:100C200001FA02F21343184A5360184B01221A606A
:100C3000FFF7E6FB0446144B1B6813F0007F06D158
:100C4000FFF7DEFB001B0228F5D9032018E0002087
:100C500016E00E4B00221A60FFF7D2FB04460A4B47
:100C60001B6813F0007F06D0FFF7CAFB001B0228A9
:100C7000F5D9032004E0002002E0012000E000207C
:100C800003B030BD0120FBE700380240600047425E
:100C9000AC210008214B9B6803F00C03042B3AD0D5
:100CA000082B01D01E4870471C4B586800F03F00CD
:100CB0005B6813F4800F1ED01A4AB2FBF0F2174B98
:100CC000586847F6C073184093FAA3F3B3FA83F356
:100CD000D84000FB02F0114B5B6803F440334FF443
:100CE000403292FAA2F2B2FA82F2D34001335B00B0
:100CF000B0FBF3F070470A4AB2FBF0F2074B5868BA
:100D000047F6C073184093FAA3F3B3FA83F3D840BD
:100D100000FB02F0DFE70348704700BF00380240E5
:100D20000024F40000127A0070B504460D460368F2
:100D3000013B0E2B11D80F2D15D88C4B1B6803F0DF
:100D40000F03AB4215D2EBB2884A1370136803F05D
:100D50000F03AB420DD0012070BD40F23721844813
:100D600000F026FCE7E74FF40E71814800F020FC0C
:100D7000E3E7236813F0020F18D0A3687BB1802B40
:100D80000DD0902B0BD0A02B09D0B02B07D0C02BAF
:100D900005D0D02B03D0E02B01D0F02B37D1754AF2
:100DA000936823F0F003A1680B439360236813F06A
:100DB000010F73D06368032B2FD86368012B32D0E7
:100DC0009A1E012A36D96B4A126812F0020F00F0FF
:100DD000CA8068498A6822F0030213438B60FFF7D8
:100DE0000FFB06466368012B2BD0022B38D0032B58
:100DF00045D0604B9B6813F00C0F4FD0FFF700FB02
:100E0000801B41F288339842F3D90320A4E740F2D3
:100E10004F21574800F0CCFBC1E740F2562154481F
:100E200000F0C6FBC9E7534A126812F4003FD0D164
:100E3000012091E74F4A126812F0007FC9D10120CA
:100E40008AE74C4B9B6803F00C03042B26D0FFF77A
:100E5000D7FA801B41F288339842F2D903207BE70E
:100E6000444B9B6803F00C03082B17D0FFF7C8FA1C
:100E7000801B41F288339842F2D903206CE73D4B46
:100E80009B6803F00C030C2B08D0FFF7B9FA801B0A
:100E900041F288339842F2D903205DE7334B1B6857
:100EA00003F00F03AB4209D9EAB2304B1A701B684A
:100EB00003F00F03AB4201D001204DE7236813F08C
:100EC000040F14D0E3685BB1B3F5805F08D0B3F5CD
:100ED000A05F05D0B3F5C05F02D0B3F5E05F36D1B7
:100EE000244A936823F4E053E1680B43936023683A
:100EF00013F0080F15D023695BB1B3F5805F08D0FC
:100F0000B3F5A05F05D0B3F5C05F02D0B3F5E05FE5
:100F100023D1184A936823F46043216943EAC1034B
:100F20009360FFF7B7FE134B9B6803F0F003F022CA
:100F300092FAA2F2B2FA82F2D3400F4AD35CD840BE
:100F40000E4B18600F20FFF723FA002004E74FF440
:100F50002D71074800F02CFBC2E740F2BB2104488A
:100F600000F026FBD5E70120F6E600BF003C02407A
:100F7000AC210008003802409C2100080C00002031
:100F8000014B1868704700BF0C00002008B5FFF740
:100F9000F7FF074B9B6803F4E0534FF4E05292FADB
:100FA000A2F2B2FA82F2D340024AD35CD84008BD22
:100FB000003802409C21000808B5FFF7E1FF074B0D
:100FC0009B6803F460434FF4604292FAA2F2B2FAD3
:100FD00082F2D340024AD35CD84008BD00380240B8
:100FE0009C210008F8B505460F4616461C463BE016
:100FF0002CB1FFF705FA069BC01AA04234D32A6829
:10100000536823F0E00353606B68B3F5827F0BD025
:10101000AB6AB3F5005F14D0012385F8513000238B
:1010200085F85030032027E0AB68B3F5004F02D0BD
:10103000B3F5806FECD12A68136823F04003136086
:10104000E6E72A68136823F400531B041B0C1360A3
:101050002A68136843F400531360DDE70123B342A9
:1010600009D0B4F1FF3FC3D12B689B6837EA030373
:10107000F4D00023F3E70020F8BD10B582B0044699
:1010800000920B4600228021FFF7ACFF034610B907
:10109000184602B010BD636D43F02003636503235F
:1010A000F6E70000002800F0E58010B5044603686C
:1010B000714A934210D0A2F5784293420CD002F5C7
:1010C0008062934208D002F57842934204D040F205
:1010D0000B116A4800F06CFA636813B1B3F5827FB4
:1010E00076D1A3682BB1B3F5806F02D0B3F5004F72
:1010F00074D1E368B3F5006F01D0002B74D1A369FC
:10110000B3F5007F03D013B1B3F5802F72D1E3693B
:101110006BB1082B0BD0102B09D0182B07D0202B2C
:1011200005D0282B03D0302B01D0382B68D1236A6F
:101130000BB1802B6AD1636A0BB1102B6CD1636A3F
:1011400033B923690BB1022B6CD16369012B6FD8C2
:10115000A36A13B1B3F5005F70D1A36AB3F5005F62
:1011600072D094F85130002B7AD0022384F8513099
:101170002268136823F0400313606368A268134376
:10118000E26813432269134362691343A26902F4BC
:1011900000721343E2691343226A1343A16A22686F
:1011A0000B431360638B03F00403616A22680B43F3
:1011B0005360A36AB3F5005F58D02268D36923F463
:1011C0000063D36100206065012384F8513010BDB5
:1011D0004FF48671294800F0EBF982E740F20D11D7
:1011E000264800F0E5F984E74FF48771234800F0C2
:1011F000DFF984E740F20F11204800F0D9F986E7C3
:101200004FF488711D4800F0D3F990E740F21111B6
:101210001A4800F0CDF98EE74FF48971174800F0B5
:10122000C7F98CE740F21511144800F0C1F98CE7BA
:101230004FF48B71114800F0BBF989E740F21911A6
:101240000E4800F0B5F988E7E36A013B4FF6FE72FD
:10125000934286D94FF48E71084800F0A9F980E7CF
:1012600084F85030204600F07BFA7EE72368E26A7B
:101270001A61A2E70120704700300140DC2100081C
:101280002DE9F04385B004460F46164699460C9D5D
:101290000023ADF80E308368F3B994F85030012B79
:1012A00000F07681012384F85030FFF7A9F88046DA
:1012B00094F85130DBB26268012B1BD0B2F5827F0B
:1012C00010D00226012384F85130002384F85030D6
:1012D000304605B0BDE8F08340F23631A14800F059
:1012E00067F9DAE7A268002A40F04A81042B01D0AE
:1012F0000226E7E7002F00F04581002E00F0448130
:10130000B9F1000F00F0428194F85130DBB2012BAB
:101310002FD000236365A663A4F83E90A4F83C9008
:101320002763A4F83690A4F8349023646364A36A16
:10133000B3F5005F21D023681A6812F0400F03D183
:101340001A6842F040021A60E368B3F5006F21D0DA
:1013500063681BB1E38E9BB2012B07D1236817F89A
:10136000012B1A73E38E013B9BB2E3864FF0010918
:101370008CE0052384F85130CBE72268136823F40E
:1013800000531B041B0C13602268136843F40053C2
:101390001360D0E763681BB1E38E9BB2012B07D1CA
:1013A000236837F8022BDA60E38E013B9BB2E386B9
:1013B0004FF001091DE02268136843F48053136065
:1013C0004FF0000901E04FF00009E38F9BB26BB1D1
:1013D00023689A6812F0010F08D0DB6826F8023BF8
:1013E000E38F013B9BB2E3874FF00109B5F1FF3F6B
:1013F00024D1E38E9BB21BB9E38F9BB2002B72D03A
:10140000B9F1000FE1D0E38E9BB2002BDDD0236851
:101410009A6812F0020FD8D037F8022BDA60E38E08
:10142000013B9BB2E386E38E9BB2002BCBD1A36A38
:10143000B3F5005FBFD04FF00009C6E7FEF7E0FF4D
:10144000A0EB0800A842D4D303263BE72268136828
:1014500043F4805313600F464FF0000902E00F463B
:101460004FF00009E38F9BB26BB123689A6812F0CA
:10147000010F08D0DB683370E38F013B9BB2E38739
:1014800001364FF00109B5F1FF3F24D1E38E9BB245
:1014900013B9E38F9BB233B3B9F1000FE2D0E38EFF
:1014A0009BB2002BDED023689A6812F0020FD9D0CD
:1014B000791C3A781A73E38E013B9BB2E386E38E84
:1014C0009BB2002BCBD1A36AB3F5005FBED00F4611
:1014D0004FF00009C6E7FEF793FFA0EB0800A84213
:1014E000D4D30326EEE6A36AB3F5005F17D02368D2
:1014F0009A6812F0100F29D0626D42F00202626504
:101500004FF6EF729A600126CDF800802B4601223B
:1015100002212046FFF766FDD0B10326D2E6CDF8C2
:1015200000802B46012211462046FFF75BFD28B1C3
:10153000636D43F0020363650326C3E62368DB683B
:101540009BB2ADF80E30BDF80E30D0E70026DBE7D9
:10155000424629462046FFF790FD28B120236365C7
:101560000126AFE6DC210008A368002B7FF4AAAEB9
:1015700002932368DA6802929B680293029BA1E6B9
:1015800002269FE601269DE601269BE6012699E6B6
:1015900002269DE6FEE708B50120FFF7FBFF0000ED
:1015A00001230360014B0B60704700BF0400002063
:1015B00008B5FFF7F0FF000008B500F009F8024A8F
:1015C000024B9A6008BD00BF0000000800ED00E07B
:1015D0000C4B1A6842F001021A60002199601A68E7
:1015E00022F0847222F480321A60074A5A601A6824
:1015F00022F480221A60D960044B4FF000629A6096
:10160000704700BF003802401030002400ED00E0B9
:10161000224B9B6803F00C03042B14D0082B16D02C
:101620001BB11F4B1F4A1A6002E01D4B1D4A1A6076
:101630001A4B9B68C3F303131B4AD15C184A136807
:10164000CB4013607047164B184A1A60F0E7134BF3
:101650005A685B6803F03F0312F4800F13D0134AFB
:10166000B2FBF3F20D4B5B68C3F3881303FB02F389
:101670000A4A5268C2F3014201325200B3FBF2F34C
:10168000074A1360D4E7074AB2FBF3F2034B5B68E7
:10169000C3F3881303FB02F3EAE700BF00380240FC
:1016A0000C0000200024F4000C22000800127A0034
:1016B00030B591B0194A136B43F0020313632C2227
:1016C000002105A800F030FD0124019402940223BA
:1016D00003930494802206920794089309944FF48C
:1016E00080420B920C940D930E940D4D01A9284647
:1016F000FEF724FF06A92846FEF720FF0BA928467F
:10170000FEF71CFF074B196804FA01F1002289B2A9
:101710002846FFF785F811B030BD00BF0038024001
:10172000000402401C00002008B50B480B4B03606E
:101730001823C36100238360436102220261836234
:101740000722C262C36003624FF400728261436287
:101750004360FFF7A7FC08BD2400002000300140D3
:1017600030B58BB000220192224B196B41F0010180
:101770001963196B01F00101019101990292196B32
:1017800041F001011963196B01F001010291029905
:101790000392196B41F001011963196B01F001010A
:1017A0000391039904925A6C42F480525A645B6C20
:1017B00003F480530493049B202305930223069390
:1017C000012207920893052509950B4C05A920468F
:1017D000FEF7B4FE40230593099505A92046FEF7C0
:1017E000ADFE80230593099505A92046FEF7A6FEC8
:1017F0000BB030BD00380240000002400A4B1B68AD
:101800000A4AA2FB03239B09013BB3F1807F09D263
:10181000074A5360074BF02183F82310002393609D
:1018200007231360704700BF0C000020D34D6210E7
:1018300010E000E000ED00E0034B1860024B1B6875
:10184000002BFBD1704700BF7C000020034B1B68BE
:101850001BB1024A1368013B136070477C000020F3
:1018600008B5FEF7C5FDFFF7F1FF08BD08B508484C
:10187000084B03604FF4E133436000238360C3608F
:10188000036183610C224261C36100F049FB08BD22
:10189000C00000200048004030B589B0002200920E
:1018A0001B4B196B41F008011963196B01F008011A
:1018B000009100990192196B41F008011963196BAD
:1018C00001F008010191019902921A6C42F4802200
:1018D0001A641B6C03F480230293029B4FF4807301
:1018E00003930223049301230593032306930725FF
:1018F0000795084C03A92046FEF720FE4FF400731D
:101900000393079503A92046FEF718FE09B030BDE2
:1019100000380240000C024000B587B0002300935D
:101920000A4A116B41F004011163126B02F00402C8
:101930000092009A4FF4005201920293039301A97E
:101940000348FEF7FBFD07B05DF804FB00380240DA
:101950000008024030B595B000240094214B1A6C69
:1019600042F080521A641B6C03F080530093009B7A
:1019700001941D4B1A6842F440421A601B6803F43C
:1019800040430193019B0123079308934FF4800385
:101990000E9308230F934FF4A8731093022511950B
:1019A000072312930D9507A8FEF756FF0F23029306
:1019B000039504944FF4A05305934FF4805306937A
:1019C000052102A8FFF7B0F9FFF7DAFA074BA3FBEE
:1019D00000308009FEF77EFD0420FEF791FD15B072
:1019E00030BD00BF0038024000700040D34D62108F
:1019F00008B5FEF7E3FCFFF7ADFFFFF709FE08BDF2
:101A000070B586B0FEF7DAFCFFF730FFFFF784FF12
:101A1000FFF74EFEFFF788FEFFF79CFF374B93E87A
:101A200003000290ADF80C10FFF7E8FE1BE04FF04A
:101A3000FF33052204A9324800F006FB314E002591
:101A40003560314C012211462046FEF7E9FE4FF485
:101A5000FA60FFF7F1FE3368012199402A4689B206
:101A60002046FEF7DDFE41F288330093052304AAE9
:101A700002A92648FFF704FC0028D8D003281FD06D
:101A80000128F0D14FF0FF330A2221491C4800F011
:101A9000DBFA1C4D0E232B601B4C01224FF48041BE
:101AA0002046FEF7BDFE4FF4FA60FFF7C5FE2B6837
:101AB00001219940002289B22046FEF7B1FED2E70B
:101AC0004FF0FF330C2213490D4800F0BDFA0D4DC5
:101AD00007232B600C4C012280212046FEF7A0FE3C
:101AE0004FF4FA60FFF7A8FE2B680121994000220D
:101AF00089B22046FEF794FEB5E700BF3422000805
:101B0000C00000201C00002000040240240000202F
:101B1000282200081C220008704700002DE9F84325
:101B200004464268B44B9A4200F29C80E3681BB1C1
:101B3000B3F5005F40F09C80236933B1B3F5806F4B
:101B400003D0B3F5C06F40F0998063694FF6F3722C
:101B5000134200D123B940F68811A848FFF728FDA9
:101B600021680A6922F44052E36813430B6121683B
:101B7000CA6822F4164222F00C02A36820690343CB
:101B800060690343E06903431343CB6021684A69FA
:101B900022F44072A36913434B61E369B3F5004F2C
:101BA00072D02368964A934200F02E8102F580623B
:101BB000934200F02981FFF7E9F900EB800000EB88
:101BC00080006568AD00B0FBF5F58E4FA7FB0535CD
:101BD0006D092E01FFF7DAF900EB800000EB8000C1
:101BE0006568AD00B0FBF5F9FFF7D0F900EB8000B8
:101BF00000EB80006568AD00B0FBF5F5A7FB05358F
:101C00006D094FF0640808FB15952D013235A7FBCF
:101C100005356D0905F0F0053544FFF7B7F900EB20
:101C2000800000EB80006668B600B0FBF6F6FFF7B8
:101C3000ADF900EB800000EB800063689B00B0FB17
:101C4000F3F0A7FB0030400908FB10684FEA0818C2
:101C500008F13208A7FB0837C7F3431723682F445E
:101C60009F6027E140F685116448FFF7A1FC5DE71E
:101C700040F686116148FFF79BFC5DE740F687114F
:101C80005E48FFF795FC60E723685D4A93425BD0AE
:101C900002F58062934257D0FFF778F900EB80009D
:101CA00000EB800065686D00B0FBF5F5554FA7FBB4
:101CB00005356D092E01FFF769F900EB800000EB97
:101CC000800065686D00B0FBF5F9FFF75FF900EB88
:101CD000800000EB800065686D00B0FBF5F5A7FBA8
:101CE00005356D094FF0640808FB1595ED00323598
:101CF000A7FB05356D096D0005F4F8753544FFF750
:101D000045F900EB800000EB800066687600B0FBD0
:101D1000F6F6FFF73BF900EB800000EB800063680C
:101D20005B00B0FBF3F3A7FB03235B0908FB13681D
:101D30004FEAC80808F13208A7FB0837C7F3421773
:101D400023682F449F60B5E0FFF736F900EB800071
:101D500000EB800065686D00B0FBF5F5294FA7FB2F
:101D600005356D092E01FFF727F900EB800000EB28
:101D7000800065686D00B0FBF5F9FFF71DF900EB19
:101D8000800000EB800065686D00B0FBF5F5A7FBF7
:101D900005356D094FF0640808FB1595ED003235E7
:101DA000A7FB05356D096D0005F4F8753544FFF79F
:101DB00003F900EB800000EB800066687600B0FB62
:101DC000F6F6FFF7F9F800EB800000EB800063689F
:101DD0005B00B0FBF3F3A7FB03235B0908FB13686D
:101DE0004FEAC80808F13208A7FB0837C7F34217C3
:101DF00023682F449F605DE0A037A0003C220008CC
:101E0000001001401F85EB51FFF7D6F800EB800072
:101E100000EB80006568AD00B0FBF5F5264FA7FB31
:101E200005356D092E01FFF7C7F800EB800000EBC8
:101E300080006568AD00B0FBF5F9FFF7BDF800EB79
:101E4000800000EB80006568AD00B0FBF5F5A7FBF6
:101E500005356D094FF0640808FB15952D013235E5
:101E6000A7FB05356D0905F0F0053544FFF7A4F82B
:101E700000EB800000EB80006668B600B0FBF6F671
:101E8000FFF79AF800EB800000EB800063689B008E
:101E9000B0FBF3F0A7FB0030400908FB10684FEAE5
:101EA000081808F13208A7FB0837C7F3431723685F
:101EB0002F449F60BDE8F8831F85EB512DE9F04169
:101EC00005460F4616469846069C2B681B6837EA5F
:101ED00003030CBF01230023B3421DD1B4F1FF3F24
:101EE000F3D02CB1FEF78CFAA0EB0800A042ECD99D
:101EF0002A68D36823F4D073D3602A68536923F027
:101F000001035361202385F8393085F83A300023E6
:101F100085F83830032000E00020BDE8F0810000A3
:101F2000002800F08B8010B504468369002B55D043
:101F30000368434A934210D0A2F54C4293420CD01E
:101F400002F58062934208D002F54C42934204D0DD
:101F50004FF480713B48FFF72BFBA36943B1B3F506
:101F6000807F05D0B3F5007F02D0B3F5407F2FD13D
:101F7000A36813B1B3F5805F4ED1E36913B1B3F534
:101F8000004F4FD194F83930002B51D0242384F8DE
:101F900039302268D36823F40053D3602046FFF71A
:101FA000BDFD2268136923F49043136122685369CD
:101FB00023F02A0353612268D36843F40053D360AB
:101FC0000020E063202384F8393084F83A3010BDD3
:101FD00040F201111B48FFF7EBFAC9E70368184A02
:101FE0009342C5D0A2F54C429342C1D002F5806223
:101FF0009342BDD002F580629342B9D002F580626F
:102000009342B5D002F544429342B1D040F205115B
:102010000C48FFF7CDFAABE740F207110948FFF78C
:10202000C7FAAAE74FF484710648FFF7C1FAA9E797
:1020300084F838302046FFF72FFCA7E701207047CF
:10204000001001403C2200082DE9F04182B01E46FC
:1020500090F83930DBB2202B55D104460D4690461E
:10206000002955D0002A55D090F83830012B53D094
:10207000012380F838300023C363212380F83930EE
:10208000FEF7BEF90746A4F82480A4F8268010E0E5
:1020900000963B46002280212046FFF70FFF0028D4
:1020A0003CD12B882268C3F3080353602369C3B96A
:1020B0000235E38C9BB2B3B1E38C013B9BB2E3846A
:1020C000A368B3F5805FE3D000963B4600228021F1
:1020D0002046FFF7F3FE18BB2A7823685A600135C3
:1020E000E7E70135E5E700963B4600224021204620
:1020F000FFF7E4FE0346A8B9202284F83920002225
:1021000084F8382000E00223184602B0BDE8F081D0
:102110000123F9E70123F7E70223F5E70323F3E7B8
:102120000323F1E70323EFE702440346934200D180
:10213000704703F8011BF9E72E2E2F73797374652E
:102140006D2F7372632F73746D333266342D686133
:102150006C2F73746D3332663478785F68616C5FAE
:10216000636F727465782E63000000002E2E2F734B
:10217000797374656D2F7372632F73746D33326668
:10218000342D68616C2F73746D3332663478785FE8
:1021900068616C5F6770696F2E630000000000006B
:1021A0000102030401020304060708092E2E2F73FF
:1021B000797374656D2F7372632F73746D33326628
:1021C000342D68616C2F73746D3332663478785FA8
:1021D00068616C5F7263632E630000002E2E2F73A4
:1021E000797374656D2F7372632F73746D333266F8
:1021F000342D68616C2F73746D3332663478785F78
:1022000068616C5F7370692E63000000000000005D
:1022100000000000010203040607080948414C5F62
:1022200054494D454F55540048414C5F4552524F1B
:10223000520000005F41434B5F0000002E2E2F73C1
:1022400072632F73746D3332663478785F68616CB3
:082250005F756172742E6300DA
:102258007856341218000020000000000024F40012
:0422680032547698DE
:04000005080001C529
:00000001FF
